:100000009031002800000C00830180312000770827
:10001000A0007808A1007908A2007A08A3002300B4
:1000200011082000A400230012082000A5002300CE
:1000300013082000A600230014082000A7008B1E30
:1000400023280B194328850191308400801E2A281B
:10005000911A45282008F7002108F8002208F90025
:100060002308FA002408230091002000250823001B
:100070009200200026082300930020002708230078
:100080009400090020008031E928803162280B00AB
:1000900028340C3401340634203085009C30840030
:1000A0000008031961280130F800F701F70B562802
:1000B000F80B55284A30F700F70B5C285F28800BB7
:1000C000532808002100B701F1017108013C031C0D
:1000D000AA28663071078400203085000318850A3D
:1000E0000508EF000408EE002000911E752823008B
:1000F0001D082000AF0023001908F8002000AF1CE5
:10010000852823001D121D16200021006F08850080
:100110006E08840078088000F108031D9C280130D7
:10012000EC0020004C20303021003602B400643056
:10013000EC0020004C202100710BA8283030370241
:10014000B5003708F3006430EC0020004C2021009B
:10015000F10A65280A30EC003408ED00F701F801D7
:100160006C0803106D18F707F70CF80CED18F7077B
:10017000F70CF80C6D19F707F70CF80CED19F707E9
:10018000F70CF80C6D1AF707F70CF80CED1AF707D7
:10019000F70CF80C6D1BF707F70CF80CED1BF707C5
:1001A000F70CF80C35087807F00070082000EF0015
:1001B000210037082000111EDB2823009A002000B0
:1001C000911280312A28D4326D38BD123317322370
:1001D0000000B00A30089B3C031DFA280130F200F1
:1001E00021000E13403022008E060A302100EC0060
:1001F00020004C203008363C031D0F290A30210016
:10020000EC0020004C20F20121000E1340302200AF
:100210008E060A302100EC0020004C20B0010B11AA
:1002200080312A288C29653AF037693774008C2987
:10023000653AF03769377410561DA0126400C42265
:10024000C620552654000C23613B6F39A034EE3391
:10025000F232F3322000D434F03720326510E33725
:100260006E3AF2376C00D434F03720326510E33741
:100270006E3AF237EC1F00018C216F3774396F36FC
:1002800020284910000149376739E5396510D33214
:100290007410D03769377400D3327410D03769378F
:1002A000F41F00018C29653AF03769377410561D28
:1002B000A0126400C3376E3AF2376C10D0240001EC
:1002C0008C216F3774396F36202849222000493736
:1002D0006739E5396510D3327410D0376937740047
:1002E0008C29653AF03769377410561025320001B1
:1002F00083187E29203085008C308400F701F801B6
:10030000F901FA012100DC01DD01DE01DF015708FE
:100310005604550454040319BD292030E00003108D
:10032000D00DD10DD20DD30DDC0DDD0DDE0DDF0DA9
:1003300057085F02031DA62956085E02031DA62961
:1003400055085D02031DA62954085C02031CB72949
:100350005408DC025508031C550FDD025608031C27
:10036000560FDE025708031C570FDF020314F70D68
:10037000F80DF90DFA0DE00B8F295C0880005D087F
:10038000813F5E08823F5F08833F20000800210014
:100390004408D3004308D2004208D1004108D000ED
:1003A0004008D7003F08D6003E08D5003D08D400DD
:1003B000200078217908031DE3297808031DE3292B
:1003C0007708031D302A7A082100D3007908D2006B
:1003D0007808D1007708D000D701D601D5010430C4
:1003E000D400200078217908031DFC297808031D1A
:1003F000FC297708031D332A7A082100D3007908E5
:10040000D2007808D1007708D000D701D601D501F5
:100410000430D400200078217908031D152A7808BB
:10042000031D152A7708031D362A7A082100D300F8
:100430007908D2007808D1007708D000D701D6011A
:10044000D5010430D400200078217908031D2E2A1C
:100450007808031D2E2A7708031D392AF701392A47
:1004600004309C003B2A05309C003B2A06309C004F
:100470003B2A07309C00F70377089B0090315128F6
:1004800021005818472A22000D13492A2100220072
:100490000D1721000D13D818512A22008E13532A4C
:1004A000210022008E1721008E1358195B2A22008A
:1004B0008E115D2A210022008E1521008E11D8197F
:1004C000652A22000E12672A210022000E16210042
:1004D0000E1200008E1022008E146E2A21008E1043
:1004E00022008E102000080021000E1022000E10A5
:1004F0001330F700F70B7A2A7D2A2100D50803195B
:10050000862A0E1022000E14892A21000E102200C5
:100510000E10000021008E1022008E102100560EB9
:10052000D7000F30D7055708D800200040222100FF
:1005300056080F39D700D8002000402208002100BB
:100540000E1022000E1021008E1022008E102000AE
:10055000A8018B1BA8178B130F302100EC00200083
:100560004C20A81B8B172100BD013D08023C031C39
:10057000CB2A0330D80020004022A8018B1BA817EB
:100580008B1305302100EC0020004C20A81B8B179A
:100590002100BD0AB52A0230D800200040222100E7
:1005A000BD013D08033C031CED2A3D082000472007
:1005B0002100BE00D5013E08D60020007422A8010B
:1005C0008B1BA8178B1305302100EC0020004C205A
:1005D000A81B8B172100BD0AD12A9031200090283A
:1005E0002100520BF42AF72A4030D300F82AD30115
:1005F00001305102D30753088038D400D501540884
:10060000D600200074220800210050080C3A200077
:100610000319112B063A0319232B023A03192B2B2A
:10062000322B2100D5010130D60020007422A80110
:100630008B1BA8178B1302302100EC0020004C20EC
:10064000A81B8B17392B01302100D1000230D200BA
:100650002000F022392B2100D5011030D6002000D7
:100660007422392B01302100D5005008D60020001B
:10067000742208000B088B13230095171514000033
:100680000000891B8B1713087F390319862B210063
:10069000BD00230011082100BE0023001208210024
:1006A000BF003D08D0002000042321003E082300A5
:1006B000910021003F08230092000B088B1395172F
:1006C000151400000000891B8B17130D140D7F39C2
:1006D0000319862B2100BD00230011082100BE0054
:1006E000230012082100BF003D08D0002000042391
:1006F00021003E082300910021003F0823009200C2
:10070000910A0319920A20003A2B230020000800C6
:100710008E30F70021004A08F8004908F900FA0174
:10072000F808031D9D2B7908F800F9010830F7023D
:10073000F808031D9D2BF701A52B0310F81BA42B14
:10074000F90DF80DF7039D2BF81320000800210088
:1007500050080319182CDC0054080319182CDC0766
:100760000318B92B7F30DC02031C182C0319182C3A
:10077000BD2B8130DC070318182C5C08F700F8014A
:10078000F901FA015108E000E0175208DF005308B0
:10079000DE001830DC00DD015E1CE62B5708FA078E
:1007A000031CD82BF90A031DD82BF80A0319DD17EF
:1007B0005608F907031CDF2BF80A0319DD17550843
:1007C000D200D2175208F8070318DD17DD0DF80C18
:1007D000F90CFA0CE00CDF0CDE0C0310DC0BCB2B5D
:1007E0000130F7070318182CF81BFD2BE00DFA0D4C
:1007F000F90DF80DF7030319182CE01F0E2CFA0A57
:10080000031D0E2CF90A031D0E2CF80A031D0E2CD5
:10081000F80CF90CFA0CF70A0319182C5108DD0032
:100820005508DD06DD1F162CF8171C2CF8131C2CA0
:10083000F701F801F901FA012000080021003E0843
:10084000CA003D08C900200088237A082100D3008F
:100850007908D2007808D1007708D0002F30D7006F
:10086000F930D6001F30D5007730D4002000A72300
:100870007A08B4007908B3007808B2007708B100AC
:1008800034082100D300200033082100D2002000CA
:1008900032082100D100200031082100D000D7010A
:1008A000D6014830D5008530D4002000A7237A082F
:1008B0002100C2007908C1007808C0007708BF0095
:1008C0003F08F7004008F8004108F9004208FA0024
:1008D0002000080021005008B63CD000FA01510861
:1008E000D400D1170310D10CD20CD30CFA0CF90C94
:1008F000F80CF70CD00B722CD41F892CF709F809CF
:10090000F909FA09F70A0319F80A0319F90A031988
:10091000FA0A2000080004082100C8004108CA00A3
:100920000319AD2C4008D3003F08D2003E08D10087
:100930003D08D000D701D6012030D5008230D40048
:100940002000A7237A082100C0007908BF0078089A
:10095000BE007708BD00CA0B922C4008D3003F08A8
:10096000D2003E08D1003D08D00020006A247A0859
:100970002100C0007908BF007808BE007708BD00DC
:10098000C01FCF2CC803C816BD09BE09BF09C009C6
:10099000BD0A0319BE0A0319BF0A0319C00A3B3076
:1009A000CF009A30CE00CA30CD00CC010A30CA0048
:1009B00041080319C80A8314203085006D30840073
:1009C0004008D3003F08D2003E08D1003D08D000C7
:1009D0004F08D7004E08D6004D08D5004C08D4006B
:1009E000200078217808F708031D0D2D2100410A09
:1009F0004A02031DFD2C20000D2D48080319102D5F
:100A00000F394A020319062D0318482DC81B482D1B
:100A1000481B102D2030422D200020302100C80519
:100A2000C81E202DC8124108031DC8037708C8003E
:100A30002D30D0002000042321004808F700C80111
:100A400041084A02031D302D7708C8002E30D0001F
:100A50002000042321004808F7002030C80500309A
:100A60003030C81E422DC8124108031DC803770844
:100A7000C8002D30D0002000042321004808F700D2
:100A8000C8013030F7077708D00020000423210088
:100A900083104F08D3004E08D2004D08D1004C08F7
:100AA000D000D701D601D5010A30D400200078212A
:100AB0007A082100CF007908CE007808CD007708A9
:100AC000CC00CA0BDB2C200008008030831C6B2D6F
:100AD0002100D20620002100DA01DB014E08D900F6
:100AE0005208D9064D0803195C2ED800F7005108AA
:100AF0000319652ED8020319002E031CBD2D5208C0
:100B0000DE00DE175308DD005408DC00DB010310B3
:100B1000DE0CDD0CDC0CDB0CD80B862DD91F932DE5
:100B20005A14792E5A1058105A16203085008030E9
:100B300084008E2E5A12D91BA72D581CB22DDE0C04
:100B4000DD0CDC0CDB0CF70A0319742EB22DDE1B56
:100B5000B52D0310DB0DDC0DDD0DDE0DF7030319E4
:100B6000742EA72D5A17212E5A134E08D900D91FBB
:100B7000BB2DDE176D2EDE136D2E5108D800F70049
:100B80004D08D8024E08DE00DE174F08DD00500881
:100B9000DC00DB010310DE0CDD0CDC0CDB0CD80B05
:100BA000C92DD91FD62DDA14792EDA105810DA167D
:100BB00020308500843084008E2EDA12D91BEA2D75
:100BC000581CF52DDE0CDD0CDC0CDB0CF70A0319D0
:100BD000742EF52DDE1BF82D0310DB0DDC0DDD0D65
:100BE000DE0DF7030319742EEA2DDA17212EDA131E
:100BF0005208D900D91FFE2DDE176D2EDE136D2E83
:100C00005208DE00DE175308DD005408DC00D91F4F
:100C10000D2EDE135A15792E5A11DB015810203093
:100C20008500803084008E2ED91B372E4E08D900C7
:100C3000581C212EDE0CDD0CDC0CDB0CF70A031932
:100C4000742EDB1F322EDC0A031D322EDD0A031D3B
:100C5000322EDE0A031D322EDE0CDD0CDC0CF70A10
:100C60000319742E5A1BB42DDA1BF72D562E803023
:100C7000DE06DE1F3F2E792E5208D9004C2E4E087C
:100C8000D900DE08031D4C2EDD08031D4C2EDC08A8
:100C9000031D4C2EF7016D2EDE1B562E0310DB0DAF
:100CA000DC0DDD0DDE0DF70B4C2E742ED91F5A2EE8
:100CB000DE176D2EDE136D2E5108F7005208DE0090
:100CC0005308DD005408DC006D2E4D08F7004E0877
:100CD000DE004F08DD005008DC005E08F8005D080B
:100CE000F9005C08FA00AA2EF701F801F901FA01EF
:100CF000AA2EDB01DC09DD09DE09DB09DB0A031DA5
:100D0000872EDC0A031D872EDD0A0319DE0A5A1816
:100D1000922DDA18D52D5A190C2E3C2E0008DC071E
:100D2000031C982EDD0A031D982EDE0A03195814A1
:100D30001100DD07031C9F2EDE0A03195814110051
:100D4000801F803ADE07031858145A1A9A2DDA1AAF
:100D5000DD2D142E2000080021004A08D2004E0884
:100D6000D206D21FB82E03110310CA1B0314EB2E98
:100D70004A08D2004D08D3004908D3020319C62EF1
:100D8000D21FEB2E0308013A8300EB2E4E08D3004E
:100D90004A08D3020319D22ED21FEB2E0308013AC0
:100DA0008300EB2E4F08D3004B08D3020319DE2E2D
:100DB000D21FEB2E0308013A8300EB2E5008D3001C
:100DC0004C08D3020319EA2ED21FEB2E0308013A76
:100DD0008300EB2E0310200008008E30F700210066
:100DE0004908F7024A08F9004B08F800F917F70814
:100DF0000319052F0310F908031D012FF808031923
:100E0000052FF90CF80CF70BFA2ECA1F0C2FF80956
:100E1000F909F80A0319F90A200008000B088B13D6
:100E200023009517151400000000891B8B17031869
:100E3000412F13087F392100C00023001108210031
:100E4000C100230012082100C2004008D000200089
:100E500004232100410823009100210042082300BF
:100E600092000B088B139517151400000000891BC6
:100E70008B172100BD0B3D2F3F2F2300412F642FE7
:100E80002300130D140D7F392100C0002300110829
:100E90002100C100230012082100C2004008D00038
:100EA0002000042321004108230091002100420872
:100EB00023009200910A0319920A03102100BD0B2E
:100EC000622F642F20000E2F20000800210045080B
:100ED000F801440203186F2F4408F7007B2FF70135
:100EE0000830C600C40DF70D450877020318F70057
:100EF000F80DC60B722F20000800203021003E1E86
:100F00003030C0003D08F700BD1F8E2FF709F70AEB
:100F10007708BD002D30C000BE173E143D08C40048
:100F20006430C5002000662777082100BD003030FE
:100F30007807C1003D08C4000A30C50020006627BC
:100F4000303077072100C30030307807C2004008F6
:100F5000F700303041020319B12FBE14BE1B3E15FD
:100F6000C52F4008C1002030C000303042020319B4
:100F7000BD2F3E14BE1BBE14C52F031D3E14031D02
:100F8000C52F4108C2002030C1003E19CC2FBE1829
:100F9000D12F3E18D62FDB2F4008D000200004238D
:100FA00021004108D0002000042321004208D00085
:100FB0002000042321004308D0002000042308005F
:1010000005082100C5000408C4003E0EF038C000E9
:10101000C007E23EC100323EC3003E080F39C1079F
:10102000C107C307E93EC200C207C2073D0E0F3920
:10103000C207C307C20DC30DC309C30D3D080F3955
:10104000C307C00D0730BF000A30C307C203031C2B
:101050002528C207C103031C2928C107C003031C9C
:101060002D28C007BF03031C3128203085006F30B6
:10107000840007304405441384070030853D04088C
:10108000733C031D47280508203C0319441700083A
:10109000F700031D5328441B5328441A6628C4191B
:1010A000532820305628C41544123030F70705085D
:1010B000BE000408BD007708D00080312000042362
:1010C000883121003E0885003D0884000131441F1D
:1010D0003F282000080004082100C8004508CA0075
:1010E00003198F284408D3004308D2004208D100D6
:1010F0004108D000D701D6012030D5008230D4007D
:1011000080312000A72388317A082100C4007908A3
:10111000C3007808C2007708C100CA0B72284408CF
:10112000D3004308D2004208D1004108D0008031EA
:1011300020006A2488317A082100C4007908C3009D
:101140007808C2007708C100C41FB328C803C816B6
:10115000C109C209C309C409C10A0319C20A031992
:10116000C30A0319C40A3B30CF009A30CE00CA30FC
:10117000CD00CC010A30CA0045080319C80A8314FF
:1011800020308500713084004408D3004308D20029
:101190004208D1004108D0004F08D7004E08D600C1
:1011A0004D08D5004C08D4008031200078218831CA
:1011B0007808F708031DF3282100450A4A02031D99
:1011C000E3282000F32848080319F6280F394A02BB
:1011D0000319EC2803183629C81B3629481BF628A2
:1011E00020302E29200020302100C805C81E0829E3
:1011F000C8124508031DC8037708C8002D30200019
:10120000111E002923009A0021004808F700C80198
:1012100045084A02031D1A297708C8002E3020000D
:10122000111E102923009A0021004808F7002030E1
:10123000C80500303030C81E2E29C8124508031DCD
:10124000C8037708C8002D302000111E252923006F
:101250009A0021004808F700C8013030F7077708E6
:101260002000111E312923009A00210083104F080D
:10127000D3004E08D2004D08D1004C08D000D70151
:10128000D601D5010A30D400803120007821883180
:101290007A082100CF007908CE007808CD007708C1
:1012A000CC00CA0BBF2888312000C429E3302300BA
:1012B000910000309200031005302100C1000B089E
:1012C0008B1323009517151400000000891B8B1742
:1012D0000318942913087F392100C3002300110843
:1012E0002100C400230012082100C500430820008B
:1012F000111E782923009A00210044082300910040
:1013000021004508230092000B088B139517151434
:1013100000000000891B8B172100C10B9029922926
:1013200023009429B6292300130D140D7F392100C1
:10133000C300230011082100C4002300120821006B
:10134000C50043082000111EA32923009A00210094
:101350004408230091002100450823009200910ACF
:101360000319920A03102100C10B5F290230840087
:101370004008C4003F08C3003E08C2003D08C10049
:101380000230C50020006B28A8018B1BA8178B1307
:1013900064302100EC00803120004C208831A81BF3
:1013A0008B1708000B088B132300951715140000EA
:1013B0000000891B8B1713087F390319222A21008B
:1013C000BD00230011082100BE00230012082100E7
:1013D000BF003D082000111EEB2923009A002100C8
:1013E0003E082300910021003F08230092000B08D3
:1013F0008B139517151400000000891B8B17130D14
:10140000140D7F390319222A2100BD002300110881
:101410002100BE00230012082100BF003D0820006B
:10142000111E102A23009A0021003E08230091007B
:1014300021003F0823009200910A0319920A20001C
:10144000D2292300200008002100CA014108C90058
:1014500080312000882388317A08D4007908D300AD
:101460007808D2007708D100831454082100D000F6
:10147000200053082100CF00200052082100CE0098
:10148000200051082100CD004008D4003F08D300BF
:101490003E08D2003D08D10080312000652588310A
:1014A0007A08D8007908D7007808D6007708D500E0
:1014B00066302100D300D2002630D1007F30D0002A
:1014C000200058082100D700200057082100D6002E
:1014D000200056082100D500200055082100D40026
:1014E00080312000A72388317A082100CB007908B9
:1014F000CA007808C9007708C80083104B08D000DC
:101500004A08CF004908CE004808CD0020006808EE
:101510002100D400200067082100D30020006608C5
:101520002100D200200065082100D1008031200078
:10153000652588317A08DC007908DB007808DA0054
:101540007708D900831458082100D00020005708DC
:101550002100CF00200056082100CE0020005508B1
:101560002100CD0020006C082100D40020006B0871
:101570002100D30020006A082100D2002000690861
:101580002100D1008031200065258831CD30210037
:10159000D300CC30D2004C30D1008030D0007A085B
:1015A000D7007908D6007808D5007708D4008031B4
:1015B0002000A72388317A08E0007908DF00780846
:1015C000DE007708DD000A302100D300D730D200DA
:1015D0005B30D1008230D000200058082100D700B5
:1015E000200057082100D600200056082100D50011
:1015F000200055082100D40080312000A723883125
:1016000083105C082100D00020005B082100CF007F
:1016100020005A082100CE00200059082100CD00EA
:101620007A08D4007908D3007808D2007708D1006E
:1016300080312000652588317A082100CB007908A7
:10164000CA007808C9007708C80083104B08D0008A
:101650004A08CF004908CE004808CD0020006008A5
:101660002100D40020005F082100D30020005E0884
:101670002100D20020005D082100D100803120002F
:10168000652588317A08E4007908E3007808E200EB
:101690007708E1002100CC01CB017A30CA00883004
:1016A000C900200064082100D00020006308210048
:1016B000CF00200062082100CE0020006108210038
:1016C000CD0080312000AC268831031C762B6808C1
:1016D000DC006708DB006608DA006508D900E40171
:1016E000E3017A30E2008830E1009B2B640821009E
:1016F000CC00200063082100CB00200062082100FC
:10170000CA00200061082100C900D001CF01CE012C
:10171000CD0180312000AC268831031C9B2B68084A
:10172000DC006708DB006608DA006508D900E40120
:10173000E301E201E10164082100CC00200063081C
:101740002100CB00200062082100CA0020006108AF
:101750002100C90080312000ED2688317908210060
:10176000A1007808A0002108CA002008C900803123
:101770002000882388317A082100B3007908B2005C
:101780007808B1007708B0008314D001CF017A3017
:10179000CE008830CD003308D4003208D3003108A1
:1017A000D2003008D10080312000652588317A08C8
:1017B0002100C5007908C4007808C3007708C2007A
:1017C00020005C08E8005B08E7005A08E6005908BA
:1017D000E5005808EC005708EB005608EA005508E9
:1017E000E90021004208F7004308F8004408F90026
:0A17F0004508FA00903120001D2F7B
:1020000034302100990098012000AF0123009F1176
:1020100019309B00A6309E0090309D00F9302000C2
:102020009B0005309C0021008E127D302C00920018
:102030009101C03093002000B001CC01CB01CA0156
:10204000C901D001CF01CE01CD01E801E701E601D0
:10205000E501EC01EB01EA01E9013C30EF00210070
:10206000B901B80123008C018D018E01220092017B
:102070009101940193012000A901AA012C0093175A
:102080002100C001BF010330BE00E830BD00C40123
:102090000F30C3004230C2004030C1008031200008
:1020A000C7299031E0302C0093003030220092009C
:1020B0009101940093019701210017101508C03970
:1020C0000638950022009D112000980199010030EA
:1020D000F80005389C00FA309B008B162100911601
:1020E000C0308B0410308C0004308E0030308D00F6
:1020F0001E109E10003023008C0004308E00003033
:102100008D0021001E169E161E139E171D141830DA
:10211000F8001D08833978049D00803120009F2A33
:102120009031123023009100013092008031200064
:102130003A23903121009D149D189C281B08A20071
:102140001C08A3002000A8018B1BA8178B130530C7
:102150002100EC00803120004C209031A81B8B170F
:1021600021002308BE002208BD00803120001E246B
:1021700090317A082100AB007908AA007808A900FC
:102180007708A8000A30D1000230D2008031200048
:10219000F022903154302100D000803120000423FF
:1021A00090310330840021002B08C0002A08BF00B2
:1021B0002908BE002808BD000230C100803120007F
:1021C0008B249031A8018B1BA8178B130A30210098
:1021D000EC00803120004C209031A81B8B1703307D
:1021E0002300910000309200803120003A2390318A
:1021F000F40173082100BB002000A8018B1BA81765
:102200008B130A302100EC00803120004C209031EB
:10221000A81B8B177408FA3E0318E62F063EE82F1A
:1022200073082100BB00720B2B299D149D181629E1
:102230001B08A2001C08A3002000A8018B1BA817E4
:102240008B130A302100EC00803120004C209031AB
:10225000A81B8B1721002308BE002208BD00803177
:1022600020001E2490317A082100AB007908AA00D2
:102270007808A9007708A800CA0120006F0821008B
:10228000C90080312000882390317A08BC00790889
:10229000BB007808BA007708B90083143C08210015
:1022A000D00020003B082100CF0020003A08210088
:1022B000CE00200039082100CD002B08D4002A08C8
:1022C000D3002908D2002808D100803120006525DC
:1022D00090317A08C0007908BF007808BE007708FE
:1022E000BD000C302100D3000230D2006B30D10091
:1022F0007E30D000200040082100D70020003F0899
:102300002100D60020003E082100D50020003D0815
:102310002100D40080312000A72390317A082100C9
:10232000C7007908C6007808C5007708C400831084
:102330004708D0004608CF004508CE004408CD002D
:1023400020004C082100D40020004B082100D300BD
:1023500020004A082100D200200049082100D100B5
:1023600080312000652590317A08C4007908C300C7
:102370007808C2007708C100E1302100D3007A302C
:10238000D2001830D1008230D00020004008210057
:10239000D70020003F082100D60020003E08210081
:1023A000D50020003D082100D40080312000A72363
:1023B0009031831044082100D00020004308210000
:1023C000CF00200042082100CE002000410821005B
:1023D000CD007A08D4007908D3007808D2007708B5
:1023E000D10080312000652590317A08C800790835
:1023F000C7007808C6007708C5002100CC01CB01D2
:102400007A30CA008830C900200048082100D00076
:10241000200047082100CF00200046082100CE0000
:10242000200045082100CD0080312000AC269031ED
:10243000031C292A4C08C4004B08C3004A08C200E8
:102440004908C100C801C7017A30C6008830C500FC
:102450004E2A48082100CC00200047082100CB006C
:10246000200046082100CA00200045082100C900BC
:10247000D001CF01CE01CD0180312000AC269031BA
:10248000031C4E2A4C08C4004B08C3004A08C20073
:102490004908C100C801C701C601C501480821009B
:1024A000CC00200047082100CB0020004608210076
:1024B000CA00200045082100C90080312000ED2617
:1024C000903179082100A7007808A6002708CA00E3
:1024D0002608C90080312000882390317A08210025
:1024E000AF007908AE007808AD007708AC0083141F
:1024F000D001CF017A30CE008830CD002F08D40033
:102500002E08D3002D08D2002C08D10080312000E5
:10251000652590317A082100C0007908BF0078084D
:10252000BE007708BD0020004408CC004308CB0063
:102530004208CA004108C9004008D0003F08CF0047
:102540003E08CE003D08CD0021003D08F7003E08C2
:10255000F8003F08F9004008FA007A08CC00790832
:10256000CB007808CA007708C90080312000ED262A
:10257000903179082100A5007808A4002508F90009
:102580002408F800F80DF90DF80DF90DF80DF90D06
:10259000F80DF90DF80DF90DF80DF90D79082C006D
:1025A00092007808910001302100D100D2008031E2
:1025B0002000F0229031173023009100013092006A
:1025C00003100D302100BD00803120000E27903116
:1025D0006F082100BD001830BE00803120007D272B
:1025E0009031A8018B1BA8178B130A302100EC0037
:1025F000803120004C209031A81B8B170130210026
:10260000D1000230D20080312000F02290314430DD
:102610002100D00080312000042390313A30210085
:10262000D00080312000042390310130840021004B
:102630002508BE002408BD0088312000002090310C
:1026400020302100D000803120000423903154300C
:102650002100D00080312000042390313A30210045
:10266000D000803120000423903103308400210009
:102670002B08C0002A08BF002908BE002808BD009A
:102680000230C100803120008B249031A8018B1BC7
:10269000A8178B130A302100EC00803120004C2059
:1026A0009031A81B8B1721002B08C0002A08BF00FF
:1026B0002908BE002808BD0088312000562190312D
:1026C0001F30230091000130920088312000D22178
:1026D0009031A8018B1BA8178B130A302100EC0046
:1026E000803120004C209031A81B8B1721003B0823
:1026F000313C031D7D2B0130F4002000E62F7308D0
:102700002100BB000130D100D20080312000F02236
:10271000903123302300910001309200803120005D
:102720003A239031A8018B1BA8178B13643021002A
:10273000EC00803120004C209031A81B8B17013019
:102740002100D1000230D20080312000F0229031EF
:102750002B302300910001309200803120003A2379
:1027600090313330230091000130920088312000F5
:10277000D2219031A8018B1BA8178B136430210044
:10278000EC00803120004C209031A81B8B172100D9
:102790003B08323C031DD02B0230F400BB01D62B8A
:1027A0003B08333C031DD62B0430F4002000E62FF9
:1027B000F0080319DD2B0330F40009302100D100AB
:1027C0000130D20080312000F02290313C302300D3
:1027D000910001309200803120003A239031A8010D
:1027E0008B1BA8178B1364302100EC008031200074
:1027F0004C209031A81B8B1701302100D1000230F2
:10280000D20080312000F02290314330230091002B
:1028100001309200803120003A239031A8018B1BB7
:10282000A8178B1364302100EC00803120004C206D
:102830009031A81B8B174C3023009100013092007F
:1028400088312000D2219031E62F73082100BB008F
:102850009D149D18292C1B08A2001C08A300200011
:10286000A8018B1BA8178B131E302100EC008031B0
:1028700020004C209031A81B8B176F082100BA0054
:102880002308BE002208BD00803120001E249031A4
:102890007A082100AB007908AA007808A900770817
:1028A000A800CA0120006F082100C9008031200063
:1028B000882390317A08BC007908BB007808BA00F8
:1028C0007708B90083143C082100D00020003B08A1
:1028D0002100CF0020003A082100CE002000390856
:1028E0002100CD002B08D4002A08D3002908D200EB
:1028F0002808D10080312000652590317A08C00079
:102900007908BF007808BE007708BD000C302100B0
:10291000D3000230D2006B30D1007E30D0002000D6
:1029200040082100D70020003F082100D6002000E9
:102930003E082100D50020003D082100D400803150
:102940002000A72390317A082100C7007908C6002B
:102950007808C5007708C40083104708D0004608EF
:10296000CF004508CE004408CD0020004C082100CF
:10297000D40020004B082100D30020004A08210089
:10298000D200200049082100D100803120006525B7
:1029900090317A08C4007908C3007808C20077082B
:1029A000C100E1302100D3007A30D2001830D100CC
:1029B0008230D000200040082100D70020003F08CE
:1029C0002100D60020003E082100D50020003D084F
:1029D0002100D40080312000A723903183104408C7
:1029E0002100D000200043082100CF002000420831
:1029F0002100CE00200041082100CD007A08D4003B
:102A00007908D3007808D2007708D10080312000FF
:102A1000652590317A08C8007908C7007808C60093
:102A20007708C5002100CC01CB017A30CA0088307C
:102A3000C900200048082100D000200047082100DC
:102A4000CF00200046082100CE00200045082100CC
:102A5000CD0080312000AC269031031C3E2D4C0867
:102A6000C4004B08C3004A08C2004908C100C8019D
:102A7000C7017A30C6008830C500632D48082100A0
:102A8000CC00200047082100CB0020004608210090
:102A9000CA00200045082100C900D001CF01CE01A5
:102AA000CD0180312000AC269031031C632D4C08F1
:102AB000C4004B08C3004A08C2004908C100C8014D
:102AC000C701C601C50148082100CC002000470805
:102AD0002100CB00200046082100CA002000450844
:102AE0002100C90080312000ED26903179082100B5
:102AF000A7007808A6002708CA002608C900803168
:102B00002000882390317A082100AF007908AE00B8
:102B10007808AD007708AC008314D001CF017A307B
:102B2000CE008830CD002F08D4002E08D3002D0809
:102B3000D2002C08D10080312000652590317A0820
:102B40002100C0007908BF007808BE007708BD00EA
:102B500020004408CC004308CB004208CA004108CA
:102B6000C9004008D0003F08CF003E08CE003D0815
:102B7000CD0021003D08F7003E08F8003F08F900AD
:102B80004008FA007A08CC007908CB007808CA001F
:102B90007708C90080312000ED26903179082100A6
:102BA000A5007808A4002508F9002408F800F80D0D
:102BB000F90DF80DF90DF80DF90DF80DF90DF80DE9
:102BC000F90DF80DF90D79082C00920078089100A4
:102BD00001302100D100D20080312000F02290315C
:102BE0005230230091000130920003100D3021007B
:102BF000BD00803120000E27903121003A08BD0031
:102C00001830BE00803120007D279031A8018B1B39
:102C1000A8178B130A302100EC00803120004C20D3
:102C20009031A81B8B1701302100D1000230D20057
:102C300080312000F022903144302100D0008031DA
:102C40002000042390313A302100D0008031200050
:102C5000042390310130840021002508BE0024089F
:102C6000BD00883120000020903120302100D000AC
:102C7000803120000423903154302100D000803175
:102C80002000042390313A302100D0008031200010
:102C9000042390310330840021002B08C0002A084F
:102CA000BF002908BE002808BD000230C1008031E5
:102CB00020008B249031A8018B1BA8178B13283080
:102CC0002100EC00803120004C209031A81B8B1794
:102CD00021002B08C0002A08BF002908BE002808D0
:102CE000BD0088312000562190315A3023009100D8
:102CF0000130920088312000D2219031A8018B1B35
:102D0000A8178B130A302100EC00803120004C20E2
:102D10009031A81B8B1721003B08313C031D922EDC
:102D20000130F4002000E62F73082100BB000130C1
:102D3000D100D20080312000F02290316030230099
:102D4000910001309200803120003A239031A80197
:102D50008B1BA8178B130A302100EC008031200058
:102D60004C209031A81B8B1701302100D10002307C
:102D7000D20080312000F022903167302300910092
:102D800001309200803120003A239031A8018B1B42
:102D9000A8178B130A302100EC00803120004C2052
:102DA0009031A81B8B173B30F0007008EF007008C3
:102DB000043C031CDF2E0030003A0319E12E0530DD
:102DC000F400E62F73082100BB00720BFD2E9D144A
:102DD0009D18E82E1B08A2001C08A3002000A801D3
:102DE0008B1BA8178B1301302100EC0080312000D1
:102DF0004C209031A81B8B1721002308BE0022080D
:102E0000BD00803120001E2490317A082100AB00E3
:102E10007908AA007808A9007708A8002B08C00044
:102E20002A08BF002908BE002808BD0020006F083E
:102E30002100C10088312000242A90317A08210025
:102E4000CC007908CB007808CA007708C900803127
:102E50002000ED2690317908EE007808ED006E082C
:102E6000F9006D08F800F80DF90DF80DF90DF80DE1
:102E7000F90DF80DF90DF80DF90DF80DF90D7908AA
:102E80002C0092007808910001302100D100D2007E
:102E900080312000F0229031703023009100013009
:102EA000920003100C302100BD00803120000E275D
:102EB00090316F082100BD001830BE008031200025
:102EC0007D279031A8018B1BA8178B13643021003C
:102ED000EC00803120004C209031A81B8B17013072
:102EE0002100D1000230D20080312000F022903148
:102EF00044302100D0008031200004239031033081
:102F0000840048082100C000200047082100BF00BD
:102F1000200046082100BE00200045082100BD0019
:102F20000230C100803120008B2490310A30210012
:102F3000D1000230D20080312000F0229031543094
:102F40002100D00080312000042390310330840020
:102F500021002B08C0002A08BF002908BE0028084D
:102F6000BD000230C100803120008B249031A801C7
:102F70008B1BA8178B1328302100EC008031200018
:102F80004C209031A81B8B1721002B08C0002A0869
:102F9000BF002908BE002808BD0088312000562146
:102FA0009031A8018B1BA8178B130A302100EC006D
:102FB000803120004C209031A81B8B1721003B084A
:102FC000313C031DE52F0130F4002000F928630097
:102FD0000A148A140A15820710297F2BD82B252C56
:042FE000942EE22E1B
:020000040001F9
:04000E00E439CF1EE4
:00000001FF
;PIC16F1459
;CRC=B799  CREATED="15-Dec-16 22:54"
