:1000000008308A00B12B0000FF00030E8301A1001D
:100010007F08A0000A08A8008A01A00E0408A20018
:100020007708A3007808A4007908A5007A08A6003C
:100030007B08A700831383128C308400801E222843
:100040008C1A39288B1E26280B193B28220884007D
:100050002308F7002408F8002508F9002608FA000C
:100060002708FB0028088A00210E8300FF0E7F0E60
:1000700009008A116F288A1500280A108A100A11AF
:10008000820728340C34013406340A108A100A110D
:100090008207543445344D345034203425343434BC
:1000A0002E343234663400340A108A100A11820762
:1000B0000C3443346F346E34743472346F346C34B3
:1000C00020343D3400340A108A100A11820750345B
:1000D00049343134203425346C34753400348C1E6A
:1000E0006F281808AA001A08F800AA1C7928181204
:1000F00018167808F40074080C1E7C2899008C12DD
:100100008A112628D6308400831300080319952805
:100110000230F800F701F70B8B28F80B8A2897308C
:10012000F700F70B9128800B882800348E30F700F9
:1001300083164E08F8004D08F900FA01F808031D6F
:10014000AB287908F800F9010830F702F808031D18
:10015000AB28F701B3280310F81BB228F90DF80DEE
:10016000F703AB28F81383120034831655080319DC
:100170002629DD00590803192629DD070318C72899
:100180007F30DD02031C262903192629CB28813064
:10019000DD07031826295D08F700F801F901FA01C7
:1001A0005608E100E1175708E0005808DF00183052
:1001B000DD00DE015F1CF4285C08FA07031CE6285A
:1001C000F90A031DE628F80A0319DE175B08F90788
:1001D000031CED28F80A0319DE175A08D700D717B1
:1001E0005708F8070318DE17DE0DF80CF90CFA0CA7
:1001F000E10CE00CDF0C0310DD0BD9280130F70710
:1002000003182629F81B0B29E10DFA0DF90DF80D3D
:10021000F70303192629E11F1C29FA0A031D1C29CB
:10022000F90A031D1C29F80A031D1C29F80CF90CF6
:10023000FA0CF70A031926295608DE005A08DE06CA
:10024000DE1F2429F8172A29F8132A29F701F801B3
:10025000F901FA018312003483165B080319F229AD
:10026000E7005F080319F229E702031C3C297F30ED
:10027000E7070318F22942298130E702031CF2291B
:100280000319F2296708F700F801F901FA01E601FC
:100290005C08E500E5175D08E4005E08E30019303E
:1002A000E7006208E302031865290130E40203183D
:1002B0006529E50203186529E60203186529E60A9F
:1002C000E50AE40A6208E30797296108E4020318D3
:1002D00080290130E50203188029E60203188029ED
:1002E000E60AE50A6108E4076208E307031C9729A8
:1002F000E40A031D9729E50A031D9729E60A9729B1
:1003000060088038E502031896290130E6020318D8
:100310009629E60A60088038E5076108E407031CAF
:100320007429E50A031D7429E60A74297A14E70B77
:100330009A29A5290310E30DE40DE50DE60D031040
:10034000FA0DF90DF80DE80D5129681CAD290310BF
:10035000F80CF90CFA0CE80CB029F7030319F22990
:10036000E81BD9290310E30DE40DE50DE60D620845
:10037000E3020318C5290130E4020318C529E50288
:100380000318C529E602031CE8296108E4020318E2
:10039000D0290130E5020318D029E602031CE82920
:1003A00060088038E5020318D9290130E602031CF1
:1003B000E829FA0A031DE829F90A031DE829F80AC1
:1003C000031DE829F70A0319F229F80CF90CFA0CB5
:1003D0005C08E7006008E706E71FF029F817F62930
:1003E000F813F629F701F801F901FA018312003434
:1003F0008030831CFE298316E00683128316E501F4
:10040000E6015C08E4006008E4065B080319EC2AD6
:10041000E300F7005F080319F52AE3020319912AA4
:10042000031C4F2A6008E900E9176108E800620828
:10043000E700E6010310E90CE80CE70CE60CE30B1F
:10044000192AE41F262A6514092B65106310651606
:10045000DE30840083131E2B6512E41B392A631CD3
:10046000442AE90CE80CE70CE60CF70A0319042B04
:10047000442AE91B472A0310E60DE70DE80DE90DB4
:10048000F7030319042B392A6517B12A65135C0891
:10049000E400E41F4D2AE917FD2AE913FD2A5F084D
:1004A000E300F7005B08E3025C08E900E9175D0878
:1004B000E8005E08E700E6010310E90CE80CE70C31
:1004C000E60CE30B5B2AE41F682AE514092BE51010
:1004D0006310E516E230840083131E2BE512E41B43
:1004E0007B2A631C862AE90CE80CE70CE60CF70A69
:1004F0000319042B862AE91B892A0310E60DE70D50
:10050000E80DE90DF7030319042B7B2AE517B12A3F
:10051000E5136008E400E41F8F2AE917FD2AE913B8
:10052000FD2A6008E900E9176108E8006208E700B1
:10053000E41F9E2AE9136515092B6511E601631076
:10054000DE30840083131E2BE41BC72A5C08E40002
:10055000631CB12AE90CE80CE70CE60CF70A031956
:10056000042BE61FC22AE70A031DC22AE80A031D5C
:10057000C22AE90A031DC22AE90CE80CE70CF70AB3
:100580000319042B651B462AE51B882AE62A8030BE
:10059000E906E91FCF2A092B6008E400DC2A5C0881
:1005A000E400E908031DDC2AE808031DDC2AE7084B
:1005B000031DDC2AF701FD2AE91BE62A0310E60DDC
:1005C000E70DE80DE90DF70BDC2A042BE41FEA2AFE
:1005D000E917FD2AE913FD2A5F08F7006008E90022
:1005E0006108E8006208E700FD2A5B08F7005C0884
:1005F000E9005D08E8005E08E7006908F80068089F
:10060000F9006708FA003C2BF701F801F901FA013B
:100610003C2BE601E709E809E909E609E60A031DBA
:10062000172BE70A031D172BE80A0319E90A6518B7
:10063000252AE518672A65199D2ACC2A0008E707AC
:10064000031C282BE80A031D282BE90A031963144D
:1006500084030008E807031C302BE90A031963141C
:1006600084030008801F803AE90703186314651AA1
:100670002C2AE51A6E2AA42A8312003483165C08F9
:10068000E3006008E306E31F4A2B03110310DC1BA1
:1006900003147D2B5C08E3005F08E4005B08E402C0
:1006A0000319582BE31F7D2B0308013A83007D2B90
:1006B0006008E4005C08E4020319642BE31F7D2B4F
:1006C0000308013A83007D2B6108E4005D08E40221
:1006D0000319702BE31F7D2B0308013A83007D2B48
:1006E0006208E4005E08E40203197C2BE31F7D2B03
:1006F0000308013A83007D2B031083120034831614
:100700005008DE004F08DD004E08DC004D08DB001D
:10071000E201E101E001DF0183123E230318922B85
:10072000031D972BF701F801F901FA011C2C831620
:100730005008D4004F08D3004E08D2004D08D10015
:10074000DA01D130D9005908840083135A1883176D
:100750000008DE01DD007F305D07DF005E08E0009D
:100760000318E00A0310600CFA005F0CF900E100C6
:100770005908840083135A188317610880005408AD
:10078000D8005308D7005208D6005108D5005008A9
:10079000DE004F08DD004E08DC004D08DB00540889
:1007A000E2005308E1005208E0005108DF00831224
:1007B0002C21831083165408DE005308DD005208F4
:1007C000DC005108DB007A08E2007908E1007808D3
:1007D000E0007708DF008312F8217A088316D4003E
:1007E0007908D3007808D2007708D100590884002E
:1007F00083135A18831780035808DE005708DD005A
:100800005608DC005508DB005408E2005308E100FC
:100810005208E0005108DF0083123E230319122C16
:100820008316BF2B83165508F7005608F8005708A3
:10083000F9005808FA008312003483164808CE00E5
:100840004708CD00831296207A088316D8007908CD
:10085000D7007808D6007708D5002F30DC00F930B3
:10086000DB001F30DA007730D9008312B52077081B
:100870008316CD007808CE007908CF007A08D00022
:10088000DE004F08DD004E08DC004D08DB009A302A
:10089000E2009930E1004130E0008430DF00831253
:1008A0002C217A08B3007908B2007808B1007708E3
:1008B000B00033088316D800831232088316D7009D
:1008C000831231088316D600831230088316D500B0
:1008D000DC014030DB001C30DA008C30D9008312A0
:1008E000B52077088316CD007808CE007908CF00B0
:1008F0007A08D0008314DE01DD012030DC00813075
:10090000DB00831233088316E20083123208831659
:10091000E100831231088316E00083123008831649
:10092000DF008312F82183165008DE004F08DD0037
:100930004E08DC004D08DB007A08E2007908E1008F
:100940007808E0007708DF0083122C217A08B700CE
:100950007908B6007808B5007708B4008314370822
:100960008316DE00831236088316DD0083123508F5
:100970008316DC00831234088316DB00E201E101F8
:100980004830E0008530DF008312F82177088316B5
:10099000CD007808CE007908CF007A08D000D800C2
:1009A0004F08D7004E08D6004D08D5009730DC0020
:1009B0003830DB007230DA00D9008312B52083149E
:1009C000E0308316DE006730DD001C30DC007C3058
:1009D000DB007A08E2007908E1007808E000770897
:1009E000DF008312F8217A08AF007908AE0078089A
:1009F000AD007708AC002F088316D00083122E08B4
:100A00008316CF0083122D088316CE0083122C0884
:100A10008316CD0083127F237A08AF007908AE00D9
:100A20007808AD007708AC0083142F088316DE0029
:100A300083122E088316DD0083122D088316DC0036
:100A400083122C088316DB00DF30E2001A30E1004D
:100A50004830E0007D30DF008312F82177088316EC
:100A6000CD007808CE007908CF007A08D000DE00EB
:100A70004F08DD004E08DC004D08DB009730E20037
:100A80003830E100F230E0007130DF0083122C21B9
:100A90007A088316CC007908CB007808CA0077085A
:100AA000C9004908F7004A08F8004B08F9004C084B
:100AB000FA008312003483165D18622D83128610AB
:100AC000642D83168312861483168610DD186C2D10
:100AD000831206126E2D83168312061683160612D3
:100AE0005D19762D83120613782D8316831206174F
:100AF00083160613DD19802D83128613822D83162B
:100B000083128617831686130000051183120515BC
:100B1000892D831605118312051100348316851063
:100B2000831285102730F700F70B942D972D83162D
:100B3000DA080319A02D851083128514A32D8316BE
:100B4000851083128510000083160511831205118C
:100B500083165B0EDC000F30DC055C08DD008312C1
:100B60005B2583165B080F39DC00DD0083125B25F3
:100B700000348316570BBD2DC02D4030D800C12D39
:100B8000D80101305602D80758088038D900DA0158
:100B90005908DB0083128E250034831655080C3A61
:100BA00083120319DA2D063A0319E62D023A0319C6
:100BB000EE2DF52D8316DA010130DB0083128E2530
:100BC00002308316D60083128220FD2D0130831659
:100BD000D6000230D7008312B925FD2D8316DA0125
:100BE0001030DB0083128E25FD2D01308316DA00D4
:100BF0005508DB0083128E25FD2D00348316550821
:100C0000B63CD500FA015608D900D6170310D60C09
:100C1000D70CD80CFA0CF90CF80CF70CD50B062EE7
:100C2000D91F1D2EF709F809F909FA09F70A03195E
:100C3000F80A0319F90A0319FA0A83120034F701B2
:100C4000F801F901FA018316DD01DE01DF01E0019F
:100C50005C085B045A04590403195E2E2030E1003D
:100C60000310D50DD60DD70DD80DDD0DDE0DDF0D22
:100C7000E00D5C086002031D472E5B085F02031D48
:100C8000472E5A085E02031D472E59085D02031CB9
:100C9000582E5908DD025A08031C5A0FDE025B0861
:100CA000031C5B0FDF025C08031C5C0FE0020314F3
:100CB000F70DF80DF90DFA0DE10B302EDD30840043
:100CC00083138312003404088316CD004C08CF0030
:100CD0000319852E4B08D8004A08D7004908D600CA
:100CE0004808D500DC01DB012030DA008230D90071
:100CF0008312B5207A088316CB007908CA007808D9
:100D0000C9007708C800CF0B6A2E4B08D8004A08E4
:100D1000D7004908D6004808D5008312FE257A0876
:100D20008316CB007908CA007808C9007708C80084
:100D3000CB1FA72ECD03CD16C809C909CA09CB09F7
:100D4000C80A0319C90A0319CA0A0319CB0A3B3096
:100D5000D4009A30D300CA30D200D1010A30CF007B
:100D60004C080319CD0A4B08D8004A08D700490897
:100D7000D6004808D5005408DC005308DB005208B0
:100D8000DA005108D90083121F2600088316C80014
:100D9000840A0008C900840A0008CA00840A0008FE
:100DA000CB00FD308407F708031DE92E4C0A4F02E3
:100DB0000319E92E4D080319EB2E0F394F020319C1
:100DC000E32E0318232FCD1B232F4D1BEB2E20309A
:100DD0001D2F2030CD05CD1EFB2ECD124C08031D3E
:100DE000CD037708CD002D30D5008312CD25831695
:100DF0004D08F700CD014C084F02031D0B2F77085B
:100E0000CD002E30D5008312CD2583164D08F70076
:100E10002030CD0500303030CD1E1D2FCD124C08B6
:100E2000031DCD037708CD002D30D5008312CD25CD
:100E300083164D08F700CD013030F7077708D5004D
:100E40008312CD2583165408D8005308D7005208C2
:100E5000D6005108D500DC01DB01DA010A30D900E7
:100E600083121F267A088316D4007908D3007808E5
:100E7000D2007708D100CF0BB32E83120034831633
:100E80008510831285108316051183120511A9019F
:100E90008B1BA9178B130F308316D6008312822069
:100EA000A91B8B17FC017C08023C031C6F2FA901B6
:100EB0008B1BA9178B1303308316DD0083125B2570
:100EC000A91B8B17A9018B1BA9178B130530831640
:100ED000D60083128220A91B8B17FC0A532FA9016D
:100EE0008B1BA9178B1302308316DD0083125B2541
:100EF000A91B8B17FC017C08033C031C9B2F7C085F
:100F00003D20FD00A9018B1BA9178B138316DA0165
:100F10007D08DB0083128E25A91B8B17A9018B1B73
:100F2000A9178B1305308316D60083128220A91BC4
:100F30008B17FC0A7B2F8A151D2C8E30F700831629
:100F40002008F7022108F9002208F800F917F7082D
:100F50000319B52F0310F908031DB12FF808031961
:100F6000B52FF90CF80CF70BAA2FA11FBC2FF8090D
:100F7000F909F80A0319F90A831200347D08F2000E
:100F80007C08F30072080C1EC32F990073080C1E16
:080F9000C72F99008A15B42C4B
:10100000AB0A2B080A3C031D2C28831605108312FB
:1010100005140A308316D6008A11831282208A159D
:101020001F151F19112883161E088312D4001E08CD
:10103000D50055088316C800831254088316C700CC
:101040008A1183121D248A157A08E1007908E000CC
:101050007808DF007708DE002B08143C031D5F28AA
:101060001F151F19312883161E088312D4001E086D
:10107000D50055088316C800831254088316C7008C
:101080008A1183121D248A157A08E5007908E40084
:101090007808E3007708E20001308316D6008A1151
:1010A000831282208A15831605100130831285066B
:1010B0000A308316D6008A11831282208A152B08E3
:1010C0001E3C031D92281F151F19642883161E0835
:1010D0008312D4001E08D50055088316C800831259
:1010E00054088316C7008A1183121D248A157A08B2
:1010F000E9007908E8007808E7007708E6000130A1
:101100008316D6008A11831282208A158316051051
:101110000130831285060A308316D6008A118312A5
:1011200082208A152B08283C031D92291F151F19A0
:10113000972883161E088312D4001E08D500550870
:101140008316C800831254088316C7008A118312BD
:101150001D248A157A08ED007908EC007808EB0068
:101160007708EA0001308316D6008A1183128220A4
:101170008A15831605100130831285060A308316FE
:10118000D6008A11831282208A1583106108831683
:10119000DE00831260088316DD0083125F08831669
:1011A000DC0083125E088316DB0083126508831659
:1011B000E200831264088316E10083126308831639
:1011C000E000831262088316DF008A118312F8217F
:1011D0008A1577088316C7007808C8007908C900FF
:1011E0007A08CA0083104A08DE004908DD00480872
:1011F000DC004708DB00831269088316E2008312D3
:1012000068088316E100831267088316E0008312E2
:1012100066088316DF008A118312F8218A15770881
:101220008316CB007808CC007908CD007A08CE0070
:1012300083104E08DE004D08DD004C08DC004B0832
:10124000DB0083126D088316E20083126C0883169C
:10125000E10083126B088316E00083126A0883168C
:10126000DF008A118312F8218A1577088316CF00D0
:101270007808D0007908D1007A08D200DE00510841
:10128000DD005008DC004F08DB00E201E101E00175
:101290008130DF008A1183122C218A157A08DD0043
:1012A0007908DC007808DB007708DA000230831662
:1012B000D600D7008A118312B9258A158316C70173
:1012C00047088A11831245208A158316C70AF7003A
:1012D000D5008A118312CD258A1505308316470261
:1012E000031D60290330840083125D088316CB0040
:1012F00083125C088316CA0083125B088316C90038
:1013000083125A088316C8000230CC008A11831257
:1013100063268A15C8308316D6008A11831282206C
:101320008A15AB010B118A112628BB01BA01703056
:10133000B9008430B8008314A9018B1BA9178B1343
:101340003B088316DE0083123A088316DD00831201
:1013500039088316DC00831238088316DB008312F9
:101360005D088316E20083125C088316E100831295
:101370005B088316E00083125A088316DF008A1187
:101380008312F8218A15A91B8B177A08BF007908E8
:10139000BE007808BD007708BC00A9018B1BA91707
:1013A0008B130C308316D8000230D7006B30D60078
:1013B0007E30D50083123F088316DC0083123E087E
:1013C0008316DB0083123D088316DA0083123C0883
:1013D0008316D9008A118312B5208A15A91B8B1791
:1013E00077088316A0007808A1007908A2007A087F
:1013F000A30083108312A9018B1BA9178B138316DB
:101400002308DE002208DD002108DC002008DB00C4
:1014100083124F088316E20083124E088316E10000
:1014200083124D088316E00083124C088316DF00F8
:101430008A118312F8218A15A91B8B177A08C30019
:101440007908C2007808C1007708C000A9018B1B89
:10145000A9178B13E1308316D8007A30D7001830E3
:10146000D6008230D50083123F088316DC00831239
:101470003E088316DB0083123D088316DA008312D0
:101480003C088316D9008A118312B5208A15A91B3E
:101490008B178310A9018B1BA9178B134308831685
:1014A000DE00831242088316DD0083124108831692
:1014B000DC00831240088316DB007A08E20079081A
:1014C000E1007808E0007708DF008A118312F82134
:1014D0008A15A91B8B177A08CB007908CA007808EF
:1014E000C9007708C800A9018B1BA9178B138316A5
:1014F000DE01DD017A30DC008830DB0083124B082E
:101500008316E20083124A088316E1008312490819
:101510008316E000831248088316DF008A118312C5
:101520003E238A15A91B8B17031CA52A4F08C3004D
:101530004E08C2004D08C1004C08C000CB01CA01D2
:101540007A30C9008830C800D02AA9018B1BA9179E
:101550008B134B088316DE0083124A088316DD00C6
:10156000831249088316DC00831248088316DB00C7
:10157000E201E101E001DF018A1183123E238A15B5
:10158000A91B8B17031CD02A4F08C3004E08C200AA
:101590004D08C1004C08C000CB01CA01C901C801F7
:1015A0004B088316A30083124A088316A2008312F5
:1015B00049088316A100831248088316A0008A11E7
:1015C00083129D278A157908D9007808D800A901C7
:1015D0008B1BA9178B1359088316CE00831258084A
:1015E0008316CD008A11831296208A15A91B8B17AA
:1015F0007A08F1007908F0007808EF007708EE002B
:101600008314A9018B1BA9178B138316DE01DD013F
:101610007A30DC008830DB007108E2007008E100FD
:1016200083126F088316E00083126E088316DF00B2
:101630008A118312F8218A15A91B8B177A08831641
:10164000A3007908A2007808A1007708A0008A11F9
:1016500083129D278A157908D7007808D600430899
:10166000CF004208CE004108CD004008CC003F0822
:10167000D3003E08D2003D08D1003C08D000003421
:101680008316A6010408A5002610831B26147E0ECF
:10169000F038A100A107E23EA200323EA4007E087D
:1016A0000F39A207A207A407E93EA300A307A307D7
:1016B0007D0E0F39A307A407A30DA40DA409A40D43
:1016C0007D080F39A407A10D0730A0000A30A40738
:1016D000A303031C672BA307A203031C6B2BA20706
:1016E000A103031C6F2BA107A003031C732BA030C5
:1016F000840083130730250525138407A4300402D2
:10170000031925170008F700031D8E2B251B8E2BB0
:10171000251AAC2BA5198E2B2030912BA51525123F
:101720003030F707FE010408FD007E10831B7E1495
:101730008312A9018B1BA9178B1377088316D50079
:101740008A118312CD258A15A91B8B177D08840069
:1017500083137E1883178316840A251F7E2B83121A
:101760000034840183131F308305723083168F0089
:101770000F080C309900A230980090308312980026
:1017800083161F129F121B0880399B0007309C0094
:101790008312AA01AB01CC01CD01CE01CF01D00152
:1017A000D101D201D301723083168F000F080730A8
:1017B0009C00050885000630F700F70BDD2B0000C4
:1017C0001C0883120D1383169D0183120317051045
:1017D000831603130108C039063881008312900173
:1017E0000030F80005389200FA3083169200061097
:1017F000831206100C3097008B1683168C16C0309F
:1018000083128B04103083168500043086001F126B
:101810009F121B08803910389B001F1383121F175B
:101820009F1783169F1783121F142030F8001F087C
:10183000C73978049F008A113F2F8A15FC017C0864
:101840008A1154208A1500380319342CFC0AA90186
:101850008B1BA9178B138316D5008A118312CD25F4
:101860008A15A91B8B171F2CA9018B1BA9178B137A
:101870000B15A91B8B1795215708F9005608F8007E
:10188000F90CF80CF90CF80CF90C78089500F90C27
:10189000790C3039F7001708CF3977049700A90180
:1018A0008B1BA9178B1309308316D6000130D70084
:1018B0008A118312B9258A15A91B8B17A9018B1BC5
:1018C000A9178B1350308316D5008A118312CD25AA
:1018D0008A15A91B8B17A9018B1BA9178B134930DC
:1018E0008316D5008A118312CD258A15A91B8B1763
:1018F000A9018B1BA9178B1320308316D5008A11E1
:101900008312CD258A15A91B8B1710308400570828
:10191000FE005608FD0040230230FC00A9018B1B8D
:10192000A9178B1396308316D6008A118312822052
:101930008A15A91B8B17FC0B8E2C7408F6004230FD
:10194000F700F70BA12C00007608313C0319B02CEE
:101950007608323C0319B02C7608333C031D342C36
:101960007608313A031D112DA9018B1BA9178B1382
:101970000B15A91B8B1795215708F9005608F8007D
:10198000F90CF80CF90CF80CF90C78089500F90C26
:10199000790C3039F7001708CF3977049700A9017F
:1019A0008B1BA9178B1309308316D6000130D70083
:1019B0008A118312B9258A15A91B8B17FC017C0893
:1019C0008A1163208A15FC0AF700A9018B1BA9174D
:1019D0008B1377088316D5008A118312CD258A15BB
:1019E000A91B8B1704307C02031DDF2C10308400F0
:1019F0005708FE005608FD004023A9018B1BA917BC
:101A00008B1364308316D6008A11831282208A15C4
:101A1000A91B8B175508FD005408FC008A11BE2F26
:041A20008A156300C0
:04400E00383FFF3FF9
:00000001FF
;PIC16F88
;CRC=BF86  CREATED="04-Dec-16 05:21"
