:1000000008308A00992C0000FF00030E8301A10034
:100010007F08A0000A08A8008A01A00E0408A20018
:100020007708A3007808A4007908A5007A08A6003C
:100030007B08A700831383128C308400801E222843
:100040008C1A39288B1E26280B193B28220884007D
:100050002308F7002408F8002508F9002608FA000C
:100060002708FB0028088A00210E8300FF0E7F0E60
:1000700009008A116F288A1500280A108A100A11AF
:10008000820728340C34013406340A108A100A110D
:100090008207543445344D345034203425343434BC
:1000A0002E343234663400340A108A100A11820762
:1000B0000C3443346F346E34743472346F346C34B3
:1000C00020343D3400340A108A100A11820750345B
:1000D00049343134203425346C34753400348C1E6A
:1000E0006F281808AA001A08F800AA1C7928181204
:1000F000181678088316B000300883120C1E7E286C
:1001000099008C128A112628E3308400831300089A
:10011000031997280230F800F701F70B8D28F80B28
:100120008C289730F700F70B9328800B8A2800342F
:100130008E30F70083165B08F8005A08F900FA01C0
:10014000F808031DAD287908F800F9010830F70216
:10015000F808031DAD28F701B5280310F81BB428D3
:10016000F90DF80DF703AD28F81383120034831648
:10017000620803192829EA00660803192829EA07F2
:100180000318C9287F30EA02031C282903192829EB
:10019000CD288130EA07031828296A08F700F801FA
:1001A000F901FA016308EE00EE176408ED00650836
:1001B000EC001830EA00EB016C1CF6286908FA071D
:1001C000031CE828F90A031DE828F80A0319EB17AD
:1001D0006808F907031CEF28F80A0319EB176708EA
:1001E000E400E4176408F8070318EB17EB0DF80CAC
:1001F000F90CFA0CEE0CED0CEC0C0310EA0BDB28FE
:100200000130F70703182829F81B0D29EE0DFA0D08
:10021000F90DF80DF70303192829EE1F1E29FA0A14
:10022000031D1E29F90A031D1E29F80A031D1E2994
:10023000F80CF90CFA0CF70A031928296308EB00EB
:100240006708EB06EB1F2629F8172C29F8132C2931
:10025000F701F801F901FA018312003483166808E6
:1002600003194A2A831203179400831603136C0898
:1002700003194A2A831203179402031C47297F306B
:100280009407031C4629831603134A2A53298130F5
:10029000940203184E29831603134A2A031D532977
:1002A000831603134A2A1408F700F801F901FA012A
:1002B00093018316031369088312031792009217A0
:1002C000831603136A08831203179100831603131E
:1002D0006B088312031790001930940083160313E0
:1002E0006F0883120317900203188A2901309102C4
:1002F00003188A29920203188A29930203188A296B
:10030000930A920A910A831603136F088312031744
:100310009007D429831603136E08831203179102E2
:100320000318B129013092020318B129930203186E
:10033000B129930A920A831603136E0883120317D6
:100340009107831603136F08831203179007031C8A
:10035000D429910A031DD429920A031DD429930A92
:10036000D429831603136D08803883120317920271
:100370000318D329013093020318D329930A831653
:1003800003136D0880388312031792078316031333
:100390006E08831203179107031CA129920A031DFB
:1003A000A129930AA1297A14940BD729E2290310D1
:1003B000900D910D920D930D0310FA0DF90DF80D9E
:1003C000950D6E29151CEA290310F80CF90CFA0C8E
:1003D000950CEF29F70BEF29831603134A2A951B77
:1003E000242A0310900D910D920D930D8316031383
:1003F0006F088312031790020318082A0130910234
:100400000318082A92020318082A9302031C362AAA
:10041000831603136E088312031791020318172A19
:10042000013092020318172A9302031C362A8316FE
:1004300003136D0880388312031792020318242ACD
:1004400001309302031C362AFA0A031D362AF90AE0
:10045000031D362AF80A031D362AF70A031D332A1C
:10046000831603134A2AF80CF90CFA0C83160313AB
:100470006908831203179400831603136D0883120F
:1004800003179406941F462AF817502AF813502A87
:1004900083160313F701F801F901FA018312031718
:1004A000031300348030831C582A03179506031366
:1004B00003179A019B011108990015089906100865
:1004C0000319462B9800F700140803194F2B9802C4
:1004D0000319EB2A031CA92A15089E009E1716086B
:1004E0009D0017089C009B0103109E0C9D0C9C0C0A
:1004F0009B0C980B732A991F802A1A14632B1A10CD
:1005000018101A16133084008317782B1A12991BAF
:10051000932A181C9E2A9E0C9D0C9C0C9B0CF70A7F
:1005200003195E2B9E2A9E1BA12A03109B0D9C0D76
:100530009D0D9E0DF70303195E2B932A1A170B2BA3
:100540001A1311089900991FA72A9E17572B9E135B
:10055000572B14089800F7001008980211089E0005
:100560009E1712089D0013089C009B0103109E0C0F
:100570009D0C9C0C9B0C980BB52A991FC22A9A14AF
:10058000632B9A1018109A16173084008317782B53
:100590009A12991BD52A181CE02A9E0C9D0C9C0CC3
:1005A0009B0CF70A03195E2BE02A9E1BE32A03101B
:1005B0009B0D9C0D9D0D9E0DF70303195E2BD52AF7
:1005C0009A170B2B9A1315089900991FE92A9E1761
:1005D000572B9E13572B15089E009E1716089D003B
:1005E00017089C00991FF82A9E131A15632B1A11DD
:1005F0009B011810133084008317782B991B212B33
:1006000011089900181C0B2B9E0C9D0C9C0C9B0C2C
:10061000F70A03195E2B9B1F1C2B9C0A031D1C2B26
:100620009D0A031D1C2B9E0A031D1C2B9E0C9D0C5A
:100630009C0CF70A03195E2B1A1BA02A9A1BE22AAC
:10064000402B80309E069E1F292B632B1508990096
:10065000362B110899009E08031D362B9D08031D9B
:10066000362B9C08031D362BF701572B9E1B402B66
:1006700003109B0D9C0D9D0D9E0DF70B362B5E2BD5
:10068000991F442B9E17572B9E13572B1408F700C6
:1006900015089E0016089D0017089C00572B10088F
:1006A000F70011089E0012089D0013089C001E0808
:1006B000F8001D08F9001C08FA00962BF701F80154
:1006C000F901FA01962B9B019C099D099E099B0942
:1006D0009B0A031D712B9C0A031D712B9D0A031994
:1006E0009E0A1A187F2A9A18C12A1A19F72A262B45
:1006F00000089C07031C822B9D0A031D822B9E0A67
:1007000003191814840300089D07031C8A2B9E0AF2
:100710000319181484030008801F803A9E070318E9
:1007200018141A1A862A9A1AC82AFE2A03130034A1
:1007300083166908831203179000831603136D084C
:10074000831203179006901FAE2B0311031083161C
:100750000313E91B0314232C8312031783160313BB
:100760006908831203179000831603136C08831221
:10077000031791008316031368088312031791026D
:100780000319CF2B901BC72B83160313232C0308AD
:10079000013A830083160313232C83120317831655
:1007A00003136D088312031791008316031369085E
:1007B0008312031791020319EA2B901BE22B831675
:1007C0000313232C0308013A830083160313232CFD
:1007D00083120317831603136E0883120317910005
:1007E000831603136A088312031791020319052C59
:1007F000901BFD2B83160313232C0308013A83005F
:1008000083160313232C83120317831603136F0815
:10081000831203179100831603136B0883120317C7
:1008200091020319202C901B182C83160313232CE0
:100830000308013A830083160313232C8312031742
:100840000310831603138312003483165508DB004C
:100850005408DA00831298207A088316E500790894
:10086000E4007808E3007708E2008312300883167A
:10087000E90083122F088316E80083122E088316DE
:10088000E70083122D088316E6008312B72077084D
:100890008316DA007808DB007908DC007A08DD00CE
:1008A000EB005C08EA005B08E9005A08E8009A30AF
:1008B000EF009930EE004130ED008430EC008312FF
:1008C0002E217A08B8007908B7007808B6007708B2
:1008D000B50038088316E500831237088316E40054
:1008E000831236088316E300831235088316E2006C
:1008F000E9014030E8001C30E7008C30E60083124C
:10090000B72077088316DA007808DB007908DC0066
:100910007A08DD00831483120317930192012030BB
:1009200091008130900003133808031797000313D8
:1009300037080317960003133608031795000313AF
:100940003508031794000313522283165D08EB0049
:100950005C08EA005B08E9005A08E8007A08EF0042
:100960007908EE007808ED007708EC0083122E215C
:100970007A08BC007908BB007808BA007708B9008B
:1009800083143C080317930003133B0803179200DA
:1009900003133A0803179100031339080317900053
:1009A0009701960148309500853094000313522238
:1009B00077088316DA007808DB007908DC007A080B
:1009C000DD00E5005C08E4005B08E3005A08E20093
:1009D0009730E9003830E8007230E700E600831213
:1009E000B7208314E03003179300673092001C3067
:1009F00091007C3090007A0897007908960078087A
:100A0000950077089400031352227A08B4007908FD
:100A1000B3007808B2007708B10034088316DD000F
:100A2000831233088316DC00831232088316DB003E
:100A3000831231088316DA005D08EB005C08EA00D7
:100A40005B08E9005A08E800EF01EE01ED01EC0156
:100A50008312982303182E2D031D332DF701F8015F
:100A6000F901FA01C62D83165D08E1005C08E0007B
:100A70005B08DF005A08DE00E701DE30E6006608AA
:100A800084008313671883170008EB01EA007F30A6
:100A90006A07EC006B08ED000318ED0A03106D0CFB
:100AA000FA006C0CF900EE006608840083136718E6
:100AB00083176E0880006108E5006008E4005F08A5
:100AC000E3005E08E2005D08EB005C08EA005B08FA
:100AD000E9005A08E8006108EF006008EE005F08CE
:100AE000ED005E08EC0083122E218310831661084E
:100AF00083120317930083160313600883120317EE
:100B00009200831603135F08831203179100831664
:100B100003135E088312031790007A089700790880
:100B200096007808950077089400031352227A08FB
:100B30008316E1007908E0007808DF007708DE001E
:100B40006608840083136718831780036508EB0029
:100B50006408EA006308E9006208E8006108EF0041
:100B60006008EE005F08ED005E08EC008312982339
:100B70000319BC2D83165B2D83166208F7006308EA
:100B8000F8006408F9006508FA0083127A08B400D6
:100B90007908B3007808B2007708B10083143408EC
:100BA000031793000313330803179200031332084B
:100BB000031791000313310803179000DF309700EB
:100BC0001A309600483095007D309400031352226D
:100BD00077088316DA007808DB007908DC007A08E9
:100BE000DD00EB005C08EA005B08E9005A08E80059
:100BF0009730EF003830EE00F230ED007130EC004D
:100C000083122E217A088316D9007908D800780833
:100C1000D7007708D6005608F7005708F80058089C
:100C2000F9005908FA008312003483166A181C2E42
:100C3000831286101E2E8316831286148316861046
:100C4000EA18262E83120612282E83168312061601
:100C5000831606126A19302E83120613322E83165B
:100C60008312061783160613EA193A2E8312861387
:100C70003C2E8316831286178316861300000511F7
:100C800083120515432E83160511831205110034B6
:100C900083168510831285102730F700F70B4E2E30
:100CA000512E8316E70803195A2E851083128514D6
:100CB0005D2E8316851083128510000083160511A2
:100CC000831205118316680EE9000F30E9056908E3
:100CD000EA0083121526831668080F39E900EA0036
:100CE0008312152600348316640B772E7A2E40303B
:100CF000E5007B2EE50101306302E50765088038D9
:100D0000E600E7016608E8008312482600348316EF
:100D100062080C3A83120319942E063A0319A02E86
:100D2000023A0319A82EAF2E8316E7010130E8001E
:100D30008312482602308316E30083128420B72EE4
:100D400001308316E3000230E40083127326B72ECD
:100D50008316E7011030E80083124826B72E0130D1
:100D60008316E7006208E80083124826B72E003495
:100D7000F701F801F901FA018316EA01EB01EC0130
:100D8000ED0169086804670466040319F72E203032
:100D9000EE000310E20DE30DE40DE50DEA0DEB0DA1
:100DA000EC0DED0D69086D02031DE02E68086C0264
:100DB000031DE02E67086B02031DE02E66086A0221
:100DC000031CF12E6608EA026708031C670FEB029A
:100DD0006808031C680FEC026908031C690FED0228
:100DE0000314F70DF80DF90DFA0DEE0BC92EEA30CC
:100DF000840083138312003404088316DA00590830
:100E0000DC0003191E2F5808E5005708E4005608B7
:100E1000E3005508E200E901E8012030E7008230F4
:100E2000E6008312B7207A088316D8007908D70025
:100E30007808D6007708D500DC0B032F5808E500AA
:100E40005708E4005608E3005508E2006208B63C83
:100E5000E200FA016308E600E3170310E30CE40C78
:100E6000E50CFA0CF90CF80CF70CE20B2D2FE61F31
:100E7000442FF709F809F909FA09F70A0319F80ADA
:100E80000319F90A0319FA0A7A08D8007908D70071
:100E90007808D6007708D500D81F5B2FDA03DA165A
:100EA000D509D609D709D809D50A0319D60A0319CD
:100EB000D70A0319D80A3B30E1009A30E000CA3063
:100EC000DF00DE010A30DC0059080319DA0A58088D
:100ED000E5005708E4005608E3005508E200610801
:100EE000E9006008E8005F08E7005E08E60083129A
:100EF000B82600088316D500840A0008D600840AA4
:100F00000008D700840A0008D800FD308407F708DD
:100F1000031D9D2F590A5C0203199D2F5A080319BE
:100F20009F2F0F395C020319972F0318D72FDA1B55
:100F3000D72F5A1B9F2F2030D12F2030DA05DA1EF1
:100F4000AF2FDA125908031DDA037708DA002D30C3
:100F5000E2008312872683165A08F700DA0159083F
:100F60005C02031DBF2F7708DA002E30E2008312E7
:100F7000872683165A08F7002030DA050030303013
:100F8000DA1ED12FDA125908031DDA037708DA00C6
:100F90002D30E2008312872683165A08F700DA0103
:100FA0003030F7077708E20083128726831661083E
:100FB000E5006008E4005F08E3005E08E200E90184
:100FC000E801E7010A30E6008312B8267A088316A2
:100FD000E1007908E0007808DF007708DE00DC0B2C
:080FE000672F83128A15C12955
:10100000AB0A2B080A3C031D2E28831605108312F9
:1010100005140A308316E3008A11831284208A158E
:101020001F151F19112883161E088312E9001E08B8
:10103000EA006A088316D500831269088316D40073
:101040008A11831225248A157A088316A300790849
:10105000A2007808A1007708A00083122B08143C96
:10106000031D61281F151F19332883161E088312BC
:10107000E9001E08EA006A088316D5008312690891
:101080008316D4008A11831225248A157A088316C0
:10109000A7007908A6007808A5007708A400013009
:1010A000E3008A11831284208A158316051001300B
:1010B000831285060A308316E3008A118312842086
:1010C0008A152B081E3C031D94281F151F1966281E
:1010D00083161E088312E9001E08EA006A088316B8
:1010E000D500831269088316D4008A11831225243F
:1010F0008A157A088316AB007908AA007808A90037
:101100007708A8000130E3008A11831284208A1531
:10111000831605100130831285060A308316E3001A
:101120008A11831284208A152B08283C031DCA29A2
:101130001F151F19992883161E088312E9001E081F
:10114000EA006A088316D500831269088316D40062
:101150008A11831225248A157A088316AF0079082C
:10116000AE007808AD007708AC000130E3008A11CA
:10117000831284208A158316051001308312850698
:101180000A308316E3008A11831284208A158310A3
:101190008316230883120317930083160313220870
:1011A0008312031792008316031321088312031777
:1011B00091008316031320088312031790008316EF
:1011C00003132708831203179700831603132608B7
:1011D000831203179600831603132508831203173F
:1011E00095008316031324088312031794008A11B1
:1011F000031352228A1577088316D4007808D50085
:101200007908D6007A08D70083105708831203178D
:101210009300831603135608831203179200831654
:101220000313550883120317910083160313540800
:10123000831203179000831603132B0883120317DE
:101240009700831603132A08831203179600831648
:101250000313290883120317950083160313280824
:101260008312031794008A11031352228A157708F8
:101270008316D8007808D9007908DA007A08DB00EC
:1012800083105B08831203179300831603135A0815
:10129000831203179200831603135908831203174E
:1012A00091008316031358088312031790008316C6
:1012B00003132F08831203179700831603132E08B6
:1012C000831203179600831603132D088312031746
:1012D0009500831603132C088312031794008A11B8
:1012E000031352228A1577088316DC007808DD0084
:1012F0007908DE007A08DF00EB005E08EA005D088E
:10130000E9005C08E800EF01EE01ED018130EC003E
:101310008A1183122E218A157A08F2007908F100C9
:101320007808F0007708EF0002308316E300E4004D
:101330008A11831273268A158316D40154088A11E0
:10134000831245208A158316D40AF700E2008A1119
:10135000831287268A15053083165402031D9E29A1
:10136000033084007208D8007108D7007008D600D6
:1013700083126F088316D5000230D9008A118312B8
:10138000FC2E8A15C8308316E3008A11831284204C
:101390008A15AB010B118A1126288316851083123A
:1013A00085108316051183120511A9018B1BA9173E
:1013B0008B130F308316E3008A11831284208A1561
:1013C000A91B8B178316B2013208023C031C062AA4
:1013D0008312A9018B1BA9178B1303308316EA0014
:1013E0008A11831215268A15A91B8B17A9018B1B3D
:1013F000A9178B1305308316E3008A11831284200A
:101400008A15A91B8B178316B20AE4298312A90136
:101410008B1BA9178B1302308316EA008A118312E3
:1014200015268A15A91B8B178316B2013208033CB7
:10143000031C402A32088A1183123D208A15831624
:10144000B3008312A9018B1BA9178B138316E70125
:101450003308E8008A11831248268A15A91B8B17C6
:10146000A9018B1BA9178B1305308316E3008A1182
:10147000831284208A15A91B8B178316B20A162A99
:1014800083128A15262DA9018B1BA9178B1383168E
:10149000DB0183122C088316DA008A11831298204C
:1014A0008A15A91B8B177A08C8007908C700780825
:1014B000C6007708C5008314A9018B1BA9178B13DD
:1014C00048080317930003134708031792000313F8
:1014D000460803179100031345080317900083166D
:1014E0000313350883120317970083160313340878
:1014F000831203179600831603133308831203170E
:1015000095008316031332088312031794008A117F
:10151000031352228A15A91B8B177A08CC0079086D
:10152000CB007808CA007708C900A9018B1BA9174E
:101530008B1344088316E500831243088316E400E6
:10154000831242088316E300831241088316E200E7
:1015500083124C088316E90083124B088316E800B7
:1015600083124A088316E700831249088316E600AF
:101570008A118312B7208A15A91B8B177708831647
:10158000BA007808BB007908BC007A08BD00831057
:101590008312A9018B1BA9178B1383163D08831295
:1015A00003179300831603133C088312031792005A
:1015B000831603133B08831203179100831603134A
:1015C0003A08831203179000031364080317970067
:1015D00003136308031796000313620803179500AB
:1015E00003136108031794008A11031352228A150A
:1015F000A91B8B177A08D0007908CF007808CE0095
:101600007708CD00A9018B1BA9178B1340088316FF
:10161000E50083123F088316E40083123E08831618
:10162000E30083123D088316E20083124C08831600
:10163000E90083124B088316E80083124A088316D8
:10164000E700831249088316E6008A118312B72047
:101650008A15A91B8B178310A9018B1BA9178B1344
:1016600050080317930003134F0803179200031346
:101670004E080317910003134D08031790007A08D2
:1016800097007908960078089500770894008A11E9
:10169000031352228A15A91B8B177A08D8007908E0
:1016A000D7007808D6007708D500A9018B1BA917A9
:1016B0008B135C088316EB0083125B088316EA0029
:1016C00083125A088316E900831259088316E8002A
:1016D000831258088316EF00831257088316EE0012
:1016E000831256088316ED00831255088316EC000A
:1016F0008A11831298238A15A91B8B17031C912B1F
:101700006408D0006308CF006208CE006108CD00F5
:101710005C08D8005B08D7005A08D6005908D500E5
:10172000CC2BA9018B1BA9178B1358088316EB0030
:10173000831257088316EA00831256088316E900BD
:10174000831255088316E800831260088316EF00A1
:1017500083125F088316EE0083125E088316ED0085
:1017600083125D088316EC008A11831298238A1570
:10177000A91B8B17031CCC2B6408D0006308CF0077
:101780006208CE006108CD006008D8005F08D7006D
:101790005E08D6005D08D50058088316B90083128C
:1017A00057088316B800831256088316B7008312B1
:1017B00055088316B60083125008E4004F08E30072
:1017C0004E08E2004D08E1004C08E8004B08E70035
:1017D0004A08E6004908E50083163608F70037088E
:1017E000F8003808F9003908FA00831200348E3006
:1017F000F70083163208F7023308F9003408F800BE
:10180000F917F70803190F2C0310F908031D0B2C07
:10181000F80803190F2CF90CF80CF70B042CB31F64
:10182000162CF809F909F80A0319F90A8312003489
:101830008316BB010408BA003B10831B3B14340E13
:10184000F038B600B607E23EB700323EB9003408C1
:101850000F39B707B707B907E93EB800B807B807A7
:10186000330E0F39B807B907B80DB90DB909B90D5D
:1018700033080F39B907B60D0730B5000A30B9077C
:10188000B803031C3F2CB807B703031C432CB7074E
:10189000B603031C472CB607B503031C4B2CB5300D
:1018A0008400831307303A053A138407B9300402E1
:1018B00003193A170008F700031D662C3A1B662C23
:1018C0003A1A842CBA19662C2030692CBA153A12AF
:1018D0003030F707B4010408B3003410831B34140C
:1018E0008312A9018B1BA9178B1377088316E200BB
:1018F0008A11831287268A15A91B8B178316330832
:101900008400831334188317840A3A1F562C8312D9
:10191000003483163308FC003208FD007C08831273
:101920000C1E902C99007D080C1E942C99008A1591
:10193000642E840183131F308305723083168F0059
:101940000F080C309900A230980090308312980054
:1019500083161F129F121B0880399B0007309C00C2
:101960008312AA01AB013C30AC007730AD001F30D0
:10197000AE00F930AF002F30B0008230BD0018301B
:10198000BE007A30BF00E130C0007F30C1000230BD
:10199000C2008F30C3005C30C4008830D9007A3078
:1019A000DA00DB01DC01DD01DE01DF01E001E10144
:1019B000E201E301E401E501E601E701E8017E104F
:1019C000723083168F000F0807309C0005088500D1
:1019D0000630F700F70BEA2C00001C0883120D13E9
:1019E00083169D0183120317051083160313010844
:1019F000C03906388100831290010030F8000538A4
:101A00009200FA30831692000610831206100C30F2
:101A100097008B16C0308B04103083168500083079
:101A200086001F129F121B08803910389B001F135D
:101A300083121F179F1783169F1783121F142030BE
:101A4000F8001F08C73978049F00CD298316B2011A
:101A500032088A11831254208A1500380319422D46
:101A60008316B20A8312A9018B1BA9178B13831645
:101A7000E2008A11831287268A15A91B8B17831609
:101A8000282D831272088316B5007108B4007008FF
:101A9000B30083126F088316B200831243227A08C0
:101AA000F6007908F5007808F4007708F300760866
:101AB0008316B5007508B4007408B3007308B2004B
:101AC0008312F7237908EE007808ED006D08E83CF2
:101AD000EB000330EC006E08031C6E0FEC026C0888
:101AE000F9006B08F800F90CF80CF90CF80CF90C7B
:101AF00078089500F90C790C3039F7001708CF39C0
:101B000077049700A9018B1BA9178B130930831643
:101B1000E3000130E4008A11831273268A15A91BA1
:101B20008B17A9018B1BA9178B1350308316E2006A
:101B30008A11831287268A15A91B8B17A9018B1B73
:101B4000A9178B1349308316E2008A118312872666
:101B50008A15A91B8B17A9018B1BA9178B13203082
:101B60008316E2008A11831287268A15A91B8B1718
:101B7000103084006C088316B40083126B0883163F
:101B8000B3008312182402308316B2008312A90115
:101B90008B1BA9178B1396308316E3008A118312CF
:101BA00084208A15A91B8B178316B20BC62D30080B
:101BB000B1004230F700F70BDB2D00003108313A5D
:101BC0008312031D642E72088316B5007108B400D9
:101BD0007008B30083126F088316B2008312432289
:101BE0007A08F6007908F5007808F4007708F30021
:101BF00076088316B5007508B4007408B30073083E
:101C0000B2008312F7237908EE007808ED006D0822
:101C1000E83CEB000330EC006E08031C6E0FEC0296
:101C20006C08F9006B08F800F90CF80CF90CF80CCA
:101C3000F90C78089500F90C790C3039F700170881
:101C4000CF3977049700A9018B1BA9178B13093093
:101C50008316E3000130E4008A11831273268A158B
:101C6000A91B8B178316B20132088A1183126320D5
:101C70008A158316B20AF7008312A9018B1BA917D4
:101C80008B1377088316E2008A11831287268A1540
:101C9000A91B8B17043083163202031D342E10301B
:101CA000840083126C088316B40083126B088316B9
:101CB000B300831218246A088316B30083126908DC
:0C1CC0008316B2008312892C422D6300B1
:04400E00383FFF3FF9
:00000001FF
;PIC16F88
;CRC=4A0C  CREATED="04-Dec-16 01:02"
