:1000000000308A00D7290000FF00030E8301A10001
:100010007F08A0000A08A8008A01A00E0408A20018
:100020007708A3007808A4007908A5007A08A6003C
:100030007B08A700831383128C308400801E222843
:100040008C1A3528220884002308F7002408F800B9
:100050002508F9002608FA002708FB0028088A006E
:10006000210E8300FF0E7F0E09008A117A280A10E4
:100070008A100A11820728340C34013406340A101D
:100080008A100A1182070D346A3461346A3461348B
:100090002534643400340A108A100A1182070C34A3
:1000A00043346F346E34743472346F346C342034AF
:1000B0003D3400340A108A100A1182075034493442
:1000C000313420342534633400344308F8014202CB
:1000D00003186D284208F7007928F7010830C4009A
:1000E000C20DF70D430877020318F700F80DC40B93
:1000F000702800348C1E7A281808A9001A08F80005
:10010000A91C8428181218167808AF00BB013B08F8
:100110003F20BB0AF70077080C1E8C289900053099
:100120003B02031D87282F08BC001F30BD00203074
:100130003D1E3030BE003C08F700BC1FA628F70962
:10014000F70A7708BC002D30BE00BD173C08C2007E
:100150006430C30065207708BC0030307807BF00EA
:100160003C08C2000A30C300652030307707C10068
:1001700030307807C0003E08F700BD1DC128BD1F04
:100180003D113D1ACE28BD1FE9283D19E928770801
:10019000BF00BD18E9287708C000E92830303F02C9
:1001A000031DE9287708BF002030BE00BD1DDC28F4
:1001B0003D11BD14BD1FBD1030304002031DE928A4
:1001C0007708C0002030BF00BD1DDC28BD10BD1F5A
:1001D0003D103D1DEF283E080C1EEC289900BD1C6B
:1001E000F5283F080C1EF22899003D1CFB2840080A
:1001F0000C1EF828990041080C1EFC2899008C124E
:100200008A1122283330840083130008031915292A
:100210000230F800F701F70B0B29F80B0A29973089
:10022000F700F70B1129800B082900343A181A2916
:1002300086101B298614831686108312BA18222969
:100240000612232906168316061283123A192A2942
:1002500006132B290617831606138312BA1932299F
:10026000861333298617831686130000051183121F
:1002700005153A29831605118312051100348316DA
:100280008510831285102730F700F70B4529482980
:10029000B708031950298316851083128514542931
:1002A00083168510831285100000831605118312B2
:1002B0000511380EB9000F30B9053908BA001621FA
:1002C00038080F39B900BA0016210034831685109A
:1002D0008312851083160511831205110F30B300A8
:1002E0000221B1013108023C031C7E290330BA000F
:1002F00016210530B3000221B10A72290230BA007A
:100300001621B1013108033C031C92293108372022
:10031000B200B7013208B8003F210530B300022116
:10032000B10A82298A11192A32080C3A03199F2925
:10033000063A0319A729023A0319BD29C229B701B0
:100340000130B8003F210230B3000221C82901303A
:10035000B3000230B400340BAE29B1294030B500EF
:10036000B229B50101303302B50735088038B6002F
:10037000B7013608B8003F21C829B7011030B800CE
:100380003F21C8290130B7003208B8003F21C829F1
:1003900000343208AB003108AC002B080C1ECE290B
:1003A00099002C080C1ED22999008A11412A840137
:1003B00083131F308305723083168F000F080C30B3
:1003C0009900A230980090308312980083161F1273
:1003D0009F121B0880399B0007309C008312A901E3
:1003E000723083168F000F0807309C0005088500C7
:1003F0000630F700F70BFA2900001C0883120D13D2
:1004000083168C16C03083128B041030831685003F
:10041000043086001F1383121F179F1783169F1720
:1004200083121F142030F8001F08C73978049F007A
:100430006629B10131084B2000380319232AB10A7B
:10044000B20094211A2A2F08B0004230F700F70BAF
:10045000272A00003008313A031D412AB101310832
:100460005A20B10AF700B200942104303102031D72
:100470002F2A3008B20094212E08B2002D08B100B6
:06048000C929232A6300D4
:04400E00383FFF3FF9
:00000001FF
;PIC16F88
;CRC=F65D  CREATED="04-Dec-16 01:41"
