:1000000008308A00022C0000FF00030E8301A100CB
:100010007F08A0000A08A8008A01A00E0408A20018
:100020007708A3007808A4007908A5007A08A6003C
:100030007B08A700831383128B1E20280B193328FB
:10004000220884002308F7002408F8002508F90096
:100050002608FA002708FB0028088A00210E8300E2
:10006000FF0E7F0E09008A11EA2D0A108A100A116C
:10007000820728340C34013406340A108A100A111D
:1000800082070C3444347534743479342E3420347B
:100090003D3400340A108A100A1182075434453462
:1000A0004D3450342034253434342E3432346634D4
:1000B0000034D43084008313000803196C28023004
:1000C000F800F701F70B6228F80B61289730F7006A
:1000D000F70B6828800B5F2800348E30F7008316FA
:1000E0005B08F8005A08F900FA01F808031D822895
:1000F0007908F800F9010830F702F808031D822892
:10010000F7018A280310F81B8928F90DF80DF70369
:100110008228F8138312003483165E080319FD2821
:10012000E60062080319FD28E60703189E287F30C1
:10013000E602031CFD280319FD28A2288130E607EA
:100140000318FD286608F700F801F901FA015F08B5
:10015000EA00EA176008E9006108E8001830E600E4
:10016000E701681CCB286508FA07031CBD28F90ABB
:10017000031DBD28F80A0319E7176408F907031CD3
:10018000C428F80A0319E7176308E000E0176008BD
:10019000F8070318E717E70DF80CF90CFA0CEA0C4E
:1001A000E90CE80C0310E60BB0280130F707031840
:1001B000FD28F81BE228EA0DFA0DF90DF80DF703FA
:1001C0000319FD28EA1FF328FA0A031DF328F90A88
:1001D000031DF328F80A031DF328F80CF90CFA0C98
:1001E000F70A0319FD285F08E7006308E706E71F21
:1001F000FB28F8170129F8130129F701F801F90183
:10020000FA01831200348316680803191F2A831227
:1002100003179400831603136C0803191F2A831213
:1002200003179402031C1C297F309407031C1B290D
:10023000831603131F2A28298130940203182329C7
:10024000831603131F2A031D2829831603131F2A4D
:100250001408F700F801F901FA019301831603135A
:1002600069088312031792009217831603136A0812
:10027000831203179100831603136B08831203176D
:10028000900019309400831603136F08831203172C
:10029000900203185F290130910203185F2992022E
:1002A00003185F29930203185F29930A920A910A9F
:1002B000831603136F08831203179007A929831667
:1002C00003136E0883120317910203188629013065
:1002D000920203188629930203188629930A920A28
:1002E000831603136E0883120317910783160313F3
:1002F0006F08831203179007031CA929910A031D95
:10030000A929920A031DA929930AA929831603136F
:100310006D0880388312031792020318A829013050
:1003200093020318A829930A831603136D088038D3
:10033000831203179207831603136E0883120317A1
:100340009107031C7629920A031D7629930A7629C0
:100350007A14940BAC29B7290310900D910D920DCE
:10036000930D0310FA0DF90DF80D950D4329151C89
:10037000BF290310F80CF90CFA0C950CC429F70BE3
:10038000C429831603131F2A951BF9290310900D06
:10039000910D920D930D831603136F0883120317AB
:1003A00090020318DD29013091020318DD29920221
:1003B0000318DD299302031C0B2A831603136E080E
:1003C0008312031791020318EC29013092020318DB
:1003D000EC299302031C0B2A831603136D08803843
:1003E0008312031792020318F92901309302031CA8
:1003F0000B2AFA0A031D0B2AF90A031D0B2AF80A15
:10040000031D0B2AF70A031D082A831603131F2A4C
:10041000F80CF90CFA0C83160313690883120317FE
:100420009400831603136D08831203179406941F18
:100430001B2AF817252AF813252A83160313F70118
:10044000F801F901FA018312031703130034803015
:10045000831C2D2A03179506031303179A019B018A
:100460001108990015089906100803191B2B98000C
:10047000F70014080319242B98020319C02A031C3F
:100480007E2A15089E009E1716089D0017089C00DE
:100490009B0103109E0C9D0C9C0C9B0C980B482AF6
:1004A000991F552A1A14382B1A1018101A161330BF
:1004B000840083174D2B1A12991B682A181C732A63
:1004C0009E0C9D0C9C0C9B0CF70A0319332B732A72
:1004D0009E1B762A03109B0D9C0D9D0D9E0DF70310
:1004E0000319332B682A1A17E02A1A1311089900E6
:1004F000991F7C2A9E172C2B9E132C2B14089800D6
:10050000F7001008980211089E009E1712089D001F
:1005100013089C009B0103109E0C9D0C9C0C9B0CD3
:10052000980B8A2A991F972A9A14382B9A10181018
:100530009A161730840083174D2B9A12991BAA2AFA
:10054000181CB52A9E0C9D0C9C0C9B0CF70A0319D9
:10055000332BB52A9E1BB82A03109B0D9C0D9D0DB5
:100560009E0DF7030319332BAA2A9A17E02A9A1330
:1005700015089900991FBE2A9E172C2B9E132C2B11
:1005800015089E009E1716089D0017089C00991FCD
:10059000CD2A9E131A15382B1A119B0118101330EF
:1005A000840083174D2B991BF62A11089900181CFB
:1005B000E02A9E0C9D0C9C0C9B0CF70A0319332B14
:1005C0009B1FF12A9C0A031DF12A9D0A031DF12A93
:1005D0009E0A031DF12A9E0C9D0C9C0CF70A031920
:1005E000332B1A1B752A9A1BB72A152B80309E06AF
:1005F0009E1FFE2A382B150899000B2B1108990015
:100600009E08031D0B2B9D08031D0B2B9C08031D2F
:100610000B2BF7012C2B9E1B152B03109B0D9C0DF8
:100620009D0D9E0DF70B0B2B332B991F192B9E172E
:100630002C2B9E132C2B1408F70015089E0016086F
:100640009D0017089C002C2B1008F70011089E0035
:1006500012089D0013089C001E08F8001D08F900F0
:100660001C08FA006B2BF701F801F901FA016B2B5A
:100670009B019C099D099E099B099B0A031D462B12
:100680009C0A031D462B9D0A03199E0A1A18542A18
:100690009A18962A1A19CC2AFB2A00089C07031CD0
:1006A000572B9D0A031D572B9E0A03191814840308
:1006B00000089D07031C5F2B9E0A0319181484036E
:1006C0000008801F803A9E07031818141A1A5B2A24
:1006D0009A1A9D2AD32A03130034831669088312B9
:1006E00003179000831603136D08831203179006F7
:1006F000901F832B0311031083160313E91B0314AC
:10070000F82B831203178316031369088312031748
:100710009000831603136C0883120317910083164D
:10072000031368088312031791020319A42B901B6B
:100730009C2B83160313F82B0308013A83008316BE
:100740000313F82B83120317831603136D08831208
:10075000031791008316031369088312031791028C
:100760000319BF2B901BB72B83160313F82B030819
:10077000013A830083160313F82B831203178316A1
:1007800003136E08831203179100831603136A087C
:100790008312031791020319DA2B901BD22B8316B5
:1007A0000313F82B0308013A830083160313F82B75
:1007B00083120317831603136F0883120317910024
:1007C000831603136B088312031791020319F52B89
:1007D000901BED2B83160313F82B0308013A8300BB
:1007E00083160313F82B83120317031083160313C6
:1007F0008312003483165508DB005408DA00831294
:100800006D207A088316E1007908E0007808DF009F
:100810007708DE0083122F088316E50083122E0866
:100820008316E40083122D088316E30083122C083C
:100830008316E20083128C2077088316DA0078088A
:10084000DB007908DC007A08DD00EB005C08EA00D8
:100850005B08E9005A08E8009A30EF009930EE0092
:100860004130ED008430EC00831203217A08B70098
:100870007908B6007808B5007708B4003708831601
:10088000E100831236088316E000831235088316D0
:10089000DF00831234088316DE00E5014030E400F7
:1008A0001C30E3008C30E20083128C207708831622
:1008B000DA007808DB007908DC007A08DD008314B0
:1008C0008312031793019201203091008130900030
:1008D000031337080317970003133608031796000E
:1008E0000313350803179500031334080317940006
:1008F0000313272283165D08EB005C08EA005B08FF
:10090000E9005A08E8007A08EF007908EE00780854
:10091000ED007708EC00831203217A08BB00790808
:10092000BA007808B9007708B80083143B080317A9
:10093000930003133A0803179200031339080317AF
:10094000910003133808031790009701960148306F
:100950009500853094000313272277088316DA0068
:100960007808DB007908DC007A08DD00E1005C082B
:10097000E0005B08DF005A08DE009730E500383001
:10098000E4007230E300E20083128C208314E03034
:1009900003179300673092001C3091007C30900068
:1009A0007A089700790896007808950077089400EF
:1009B000031327227A08B3007908B2007808B1003F
:1009C0007708B00033088316DD00831232088316DF
:1009D000DC00831231088316DB0083123008831693
:1009E000DA005D08EB005C08EA005B08E9005A08E1
:1009F000E800EF01EE01ED01EC0183126D23031815
:100A0000032D031D082DF701F801F901FA019B2DB3
:100A100083165D08E1005C08E0005B08DF005A080F
:100A2000DE00E701DE30E600660884008313671805
:100A300083170008EB01EA007F306A07EC006B08BF
:100A4000ED000318ED0A03106D0CFA006C0CF900B0
:100A5000EE00660884008313671883176E08800011
:100A60006108E5006008E4005F08E3005E08E2005A
:100A70005D08EB005C08EA005B08E9005A08E80042
:100A80006108EF006008EE005F08ED005E08EC0012
:100A900083120321831083166108831203179300C6
:100AA000831603136008831203179200831603133F
:100AB0005F08831203179100831603135E088312E5
:100AC000031790007A089700790896007808950037
:100AD00077089400031327227A088316E100790827
:100AE000E0007808DF007708DE00660884008313E2
:100AF0006718831780036508EB006408EA00630841
:100B0000E9006208E8006108EF006008EE005F0895
:100B1000ED005E08EC0083126D230319912D8316FE
:100B2000302D83166208F7006308F8006408F900A6
:100B30006508FA0083127A08B3007908B2007808D1
:100B4000B1007708B0008314330803179300031330
:100B5000320803179200031331080317910003139F
:100B6000300803179000DF3097001A3096004830A5
:100B700095007D3094000313272277088316DA004E
:100B80007808DB007908DC007A08DD00EB005C08FF
:100B9000EA005B08E9005A08E8009730EF003830B7
:100BA000EE00F230ED007130EC00831203217A0880
:100BB0008316D9007908D8007808D7007708D600BE
:100BC0005608F7005708F8005808F9005908FA00C5
:100BD00083120034AA0A2A080A3C031D142E831625
:100BE0000510831205140A308316D400831259208D
:100BF0001F151F19F92D83161E088312E8001E0801
:100C0000E90069088316D500831268088316D400AA
:100C10008312FA237A088316A3007908A2007808C1
:100C2000A1007708A00083122A08143C031D412E5E
:100C30001F151F19192E83161E088312E8001E089F
:100C4000E90069088316D500831268088316D4006A
:100C50008312FA237A088316A7007908A600780879
:100C6000A5007708A4000130D40083125920831610
:100C700005100130831285060A308316D4008312D2
:100C800059202A081E3C031D6E2E1F151F19462EC3
:100C900083161E088312E8001E08E90069088316FF
:100CA000D500831268088316D4008312FA237A08C9
:100CB0008316AB007908AA007808A9007708A80075
:100CC0000130D4008312592083160510013083129D
:100CD00085060A308316D400831259202A08283C3E
:100CE000031D612F1F151F19732E83161E088312F3
:100CF000E8001E08E90069088316D5008312680819
:100D00008316D4008312FA237A088316AF00790879
:100D1000AE007808AD007708AC000130D400831233
:100D20005920831605100130831285060A30831678
:100D3000D4008312592083108316230883120317CB
:100D4000930083160313220883120317920083165D
:100D5000031321088312031791008316031320083D
:100D600083120317900083160313270883120317B7
:100D70009700831603132608831203179600831621
:100D80000313250883120317950083160313240801
:100D90008312031794000313272277088316D400C5
:100DA0007808D5007908D6007A08D700831057084C
:100DB0008312031793008316031356088312031735
:100DC00092008316031355088312031791008316AC
:100DD00003135408831203179000831603132B0880
:100DE000831203179700831603132A08831203172D
:100DF00096008316031329088312031795008316A0
:100E0000031328088312031794000313272277087B
:100E10008316D8007808D9007908DA007A08DB0050
:100E200083105B08831203179300831603135A0879
:100E300083120317920083160313590883120317B2
:100E4000910083160313580883120317900083162A
:100E500003132F08831203179700831603132E081A
:100E6000831203179600831603132D0883120317AA
:100E70009500831603132C088312031794000313A1
:100E8000272277088316DC007808DD007908DE0069
:100E90007A08DF00EB005E08EA005D08E9005C0804
:100EA000E800EF01EE01ED018130EC008312032137
:100EB0007A08F1007908F0007808EF007708EE0072
:100EC000AA010B118A112028831647186B2F831251
:100ED00086106D2F83168312861483168610C7180A
:100EE000752F83120612772F831683120616831628
:100EF000061247197F2F83120613812F8316831240
:100F0000061783160613C719892F831286138B2F92
:100F10008316831286178316861300000511831229
:100F20000515922F831605118312051100348316BF
:100F30008510831285102730F700F70B9D2FA02F07
:100F40008316C4080319A92F851083128514AC2FAA
:100F500083168510831285100000831605118312F5
:100F600005118316450EC6000F30C6054608C7009A
:100F700083126427831645080F39C600C700831201
:100F8000642700348316410BC62FC92F4030C2009E
:100F9000CA2FC20101304002C20742088038C30094
:100FA000C4014308C5008312972700348E30F70030
:100FB00083163108F7023208F9003308F800F917F0
:100FC000F7080319EE2F0310F908031DEA2FF8089C
:100FD0000319EE2FF90CF80CF70BE32FB21FF52FC6
:100FE000F809F909F80A0319F90A83128A15C32CBA
:10100000831685108312851083160511831205112E
:10101000A9018B1BA9178B130F308316D4008A11DB
:10102000831259208A15A91B8B178316B101310829
:10103000023C031C31280330C7008A118312642745
:101040008A15A9018B1BA9178B1305308316D400B1
:101050008A11831259208A15A91B8B178316B10A8E
:1010600017280230C7008A11831264278A15831655
:10107000B1013108033C031C5B2831088A1183123B
:1010800035208A158316B200C4013208C5008A11C2
:10109000831297278A15A9018B1BA9178B1305307B
:1010A0008316D4008A11831259208A15A91B8B1725
:1010B0008316B10A392883128A158E2C83163F08AD
:1010C0000C3A831203196B28063A03198128023A55
:1010D00003198B2894288316C4010130C5008A1196
:1010E000831297278A15A9018B1BA9178B1302302E
:1010F0008316D4008A11831259208A15A91B8B17D5
:101100009E2801308316C0000230C1008A1183126C
:10111000C2278A159E288316C4011030C5008A1183
:10112000831297278A159E2801308316C4003F0832
:10113000C5008A11831297278A159E280034A901B9
:101140008B1BA9178B138316DB0183122B088316C5
:10115000DA008A1183126D208A15A91B8B177A0871
:10116000C7007908C6007808C5007708C400831452
:10117000A9018B1BA9178B134708031793000313AF
:101180004608031792000313450803179100031341
:1011900044080317900083160313340883120317BF
:1011A00097008316031333088312031796008316E0
:1011B00003133208831203179500831603133108B3
:1011C0008312031794008A11031327228A15A91B7F
:1011D0008B177A08CB007908CA007808C90077080D
:1011E000C800A9018B1BA9178B1343088316E100C4
:1011F000831242088316E000831241088316DF0041
:10120000831240088316DE0083124B088316E50024
:1012100083124A088316E400831249088316E30008
:10122000831248088316E2008A1183128C208A15E3
:10123000A91B8B1777088316B9007808BA007908BC
:10124000BB007A08BC0083108312A9018B1BA9176D
:101250008B1383163C088312031793008316031322
:101260003B08831203179200831603133A08831274
:101270000317910083160313390883120317900094
:1012800003136308031797000313620803179600FC
:1012900003136108031795000313600803179400F4
:1012A0008A11031327228A15A91B8B177A08CF00EE
:1012B0007908CE007808CD007708CC00A9018B1BF7
:1012C000A9178B133F088316E10083123E0883168B
:1012D000E00083123D088316DF0083123C0883166A
:1012E000DE0083124B088316E50083124A0883163A
:1012F000E400831249088316E3008312480883162A
:10130000E2008A1183128C208A15A91B8B17831087
:10131000A9018B1BA9178B134F0803179300031305
:101320004E080317920003134D080317910003138F
:101330004C08031790007A089700790896007808FF
:101340009500770894008A11031327228A15A91B98
:101350008B177A08D7007908D6007808D500770867
:10136000D400A9018B1BA9178B135B088316EB0014
:1013700083125A088316EA00831259088316E9007B
:10138000831258088316E800831257088316EF006B
:10139000831256088316EE00831255088316ED005B
:1013A000831254088316EC008A1183126D238A1568
:1013B000A91B8B17031CED296308CF006208CE0020
:1013C0006108CD006008CC005B08D7005A08D60041
:1013D0005908D5005808D400282AA9018B1BA91741
:1013E0008B1357088316EB00831256088316EA0006
:1013F000831255088316E900831254088316E80007
:1014000083125F088316EF0083125E088316EE00D6
:1014100083125D088316ED0083125C088316EC00CE
:101420008A1183126D238A15A91B8B17031C282A86
:101430006308CF006208CE006108CD006008CC00D0
:101440005F08D7005E08D6005D08D5005C08D400B0
:1014500057088316B800831256088316B700831204
:1014600055088316B600831254088316B5008312FC
:101470004F08E3004E08E2004D08E1004C08E00090
:101480004B08E7004A08E6004908E5004808E40080
:1014900083163508F7003608F8003708F9003808D1
:1014A000FA0083128A15AF2C8316B9010408B8001C
:1014B0003910831B3914320EF038B400B407E23E01
:1014C000B500323EB70032080F39B507B507B70788
:1014D000E93EB600B607B607310E0F39B607B707B3
:1014E000B60DB70DB709B70D31080F39B707B40DF1
:1014F0000730B3000A30B707B603031C7B2AB607D0
:10150000B503031C7F2AB507B403031C832AB40761
:10151000B303031C872AB3308400831307303805D4
:1015200038138407B7300402031938170008F7008E
:10153000031DA22A381BA22A381AB62AB819A22AD1
:101540002030A52AB81538123030F707B201040848
:10155000B1003210831B32147708BF0083125E2063
:10156000831631088400831332188317840A381FC6
:10157000922A83128A15F82CF701F801F901FA0171
:101580008316C701C801C901CA01460845044404BD
:1015900043040319FB2A2030CB000310BF0DC00DFC
:1015A000C10DC20DC70DC80DC90DCA0D46084A02AE
:1015B000031DE42A45084902031DE42A44084802A1
:1015C000031DE42A43084702031CF52A4308C70207
:1015D0004408031C440FC8024508031C450FC902F8
:1015E0004608031C460FCA020314F70DF80DF90D47
:1015F000FA0DCB0BCD2AC73084008313831200343D
:1016000004088316B7003608B90003192C2B83127F
:10161000A9018B1BA9178B1383163508E100340829
:10162000E0003308DF003208DE00E501E40120308D
:10163000E3008230E2008A1183128C208A15A91BF4
:101640008B177A088316B5007908B4007808B300C0
:101650007708B200B90B072B3508C2003408C10067
:101660003308C0003208BF003F08B63CBF00FA0193
:101670004008C300C0170310C00CC10CC20CFA0C08
:10168000F90CF80CF70CBF0B3B2BC31F522BF709BF
:10169000F809F909FA09F70A0319F80A0319F90A06
:1016A0000319FA0A7A08B5007908B4007808B3007B
:1016B0007708B200B51F692BB703B716B209B30993
:1016C000B409B509B20A0319B30A0319B40A031914
:1016D000B50A3B30BE009A30BD00CA30BC00BB0129
:1016E0000A30B90036080319B70A3508C2003408B1
:1016F000C1003308C0003208BF003E08C6003D08E4
:10170000C5003C08C4003B08C3008312BC2200088B
:101710008316B200840A0008B300840A0008B400EB
:10172000840A0008B500FD308407F708031DAB2BC1
:10173000360A39020319AB2B37080319AD2B0F39C1
:1017400039020319A52B0318E52BB71BE52B371B13
:10175000AD2B2030DF2B2030B705B71EBD2BB712C5
:101760003608031DB7037708B7002D30BF0083127A
:101770005E2083163708F700B70136083902031DCB
:10178000CD2B7708B7002E30BF0083125E20831662
:101790003708F7002030B70500303030B71EDF2B98
:1017A000B7123608031DB7037708B7002D30BF0006
:1017B00083125E2083163708F700B7013030F70731
:1017C0007708BF0083125E2083163E08C2003D08E2
:1017D000C1003C08C0003B08BF00C601C501C401F0
:1017E0000A30C3008312BC227A088316BE0079082F
:1017F000BD007808BC007708BB00B90B752B8312BD
:101800008A15372D840183131F30830572308316A8
:101810008F000F080C309900A2309800903083128E
:10182000980083161F129F121B0880399B000730F7
:101830009C008312AA013C30AB007730AC001F3013
:10184000AD00F930AE002F30AF008230BC00183050
:10185000BD007A30BE00E130BF007F30C0000230F2
:10186000C1008F30C2005C30C3008830D8007A30AD
:10187000D900DA01DB01DC01DD01DE01DF01E0017D
:10188000E101E201E301E401E501E601E70176108F
:10189000723083168F000F0807309C000508850002
:1018A0000630F700F70B522C00001C0883120D13B2
:1018B00083169D0183120317051083160313010875
:1018C000C03906388100831290010030F8000538D5
:1018D0009200FA30831692000610831206100C3024
:1018E00097008B16C0308B041030831685000830AB
:1018F00086001F129F121B08803910389B001F138F
:1019000083121F179F1783169F1783121F142030EF
:10191000F8001F08C73978049F0000288316B1011A
:1019200031088A1183123D208A1500380319A02C32
:101930008316B10ABF0083125E208316902C831297
:1019400071088316B4007008B30083126F08831601
:10195000B20083126E088316B10083129F287A08A2
:10196000F5007908F4007808F3007708F2007508AC
:101970008316B4007408B3007308B2007208B10093
:101980008A118312D62F8A157908ED007808EC00A9
:101990006C08E83CEA000330EB006D08031C6D0F97
:1019A000EB026B08F9006A08F800F90CF80CF90C66
:1019B000F80CF90C78089500F90C790C3039F7001F
:1019C0001708CF39770497000A308316C00001301A
:1019D000C1008A118312C2278A15103084006B0857
:1019E0008316B20083126A088316B1008312542A48
:1019F00002308316B1008312A9018B1BA9178B1328
:101A000096308316D4008A11831259208A15A91B97
:101A10008B178316B10BFB2C0230C000C1008A115A
:101A20008312C2278A158316B10131088A118312E5
:101A30004A208A158316B10AF700BF0083125E2080
:101A4000053083163102031D152D03308400710803
:101A5000B5007008B40083126F088316B3008312B8
:101A60006E088316B2000230B6008312002BA90163
:101A70008B1BA9178B13C8308316D4008A118312CD
:101A800059208A15A91B8B176908FC006808FD00FE
:101A90007C080C1E492D99007D080C1E4D2D9900C7
:041AA000A02C630013
:04400E00383FFF3FF9
:00000001FF
;PIC16F88
;CRC=BB83  CREATED="03-Dec-16 22:56"
