:1000000008308A0000280000FF00030E8301A100D1
:100010007F08A0000A08A8008A01A00E0408A20018
:100020007708A3007808A4007908A5007A08A6003C
:100030007B08A700831383128B1E20280B193328FB
:10004000220884002308F7002408F8002508F90096
:100050002608FA002708FB0028088A00210E8300E2
:10006000FF0E7F0E09008A11802A0A108A100A11D9
:10007000820728340C34013406340A108A100A111D
:1000800082070C34543465346D3470342E3420348B
:100090003D3400340A108A100A1182075434453462
:1000A0004D3450342034253434342E3432346634D4
:1000B0000034743084008313000803196D28013064
:1000C000F800F701F70B6228F80B61284A30F700B7
:1000D000F70B68286B28800B5F2800348030831C66
:1000E00074288316AD0683128316B201B301290862
:1000F000B1002D08B106280803196229B000F700E5
:100100002C0803196B29B00203190729031CC52801
:100110002D08B600B6172E08B5002F08B400B3019D
:100120000310B60CB50CB40CB30CB00B8F28B11F78
:100130009C2832147F29321030103216AB308400E4
:10014000831394293212B11BAF28301CBA28B60C85
:10015000B50CB40CB30CF70A03197A29BA28B61BEC
:10016000BD280310B30DB40DB50DB60DF70303197B
:100170007A29AF283217272932132908B100B11F75
:10018000C328B6177329B61373292C08B000F700DB
:100190002808B0022908B600B6172A08B5002B08AF
:1001A000B400B3010310B60CB50CB40CB30CB00B17
:1001B000D128B11FDE28B2147F29B2103010B21638
:1001C000AF30840083139429B212B11BF128301C84
:1001D000FC28B60CB50CB40CB30CF70A03197A2939
:1001E000FC28B61BFF280310B30DB40DB50DB60DDA
:1001F000F70303197A29F128B2172729B2132D081A
:10020000B100B11F0529B6177329B61373292D083C
:10021000B600B6172E08B5002F08B400B11F142978
:10022000B61332157F293211B3013010AB30840080
:1002300083139429B11B3D292908B100301C2729BB
:10024000B60CB50CB40CB30CF70A03197A29B31F1A
:100250003829B40A031D3829B50A031D3829B60AFE
:10026000031D3829B60CB50CB40CF70A03197A290A
:10027000321BBC28B21BFE285C298030B606B61F94
:1002800045297F292D08B10052292908B100B60857
:10029000031D5229B508031D5229B408031D522914
:1002A000F7017329B61B5C290310B30DB40DB50D0E
:1002B000B60DF70B52297A29B11F6029B617732999
:1002C000B61373292C08F7002D08B6002E08B500C8
:1002D0002F08B40073292808F7002908B6002A0857
:1002E000B5002B08B4003608F8003508F9003408CA
:1002F000FA00B229F701F801F901FA01B229B301B4
:10030000B409B509B609B309B30A031D8D29B40AA6
:10031000031D8D29B50A0319B60A32189B28B21895
:10032000DD283219132942290008B407031C9E292D
:10033000B50A031D9E29B60A031930148403000868
:10034000B507031CA629B60A031930148403000854
:10035000801F803AB60703183014321AA228B21A46
:10036000E4281A298312003483162C0803197A2AE8
:10037000B800300803197A2AB802031CC4297F3058
:10038000B80703187A2ACA298130B802031C7A2ACE
:1003900003197A2A3808F700F801F901FA01B701C0
:1003A0002D08B600B6172E08B5002F08B400193076
:1003B000B8003308B4020318ED290130B502031860
:1003C000ED29B6020318ED29B7020318ED29B70A83
:1003D000B60AB50A3308B4071F2A3208B502031853
:1003E000082A0130B6020318082AB7020318082A9F
:1003F000B70AB60A3208B5073308B407031C1F2A28
:10040000B50A031D1F2AB60A031D1F2AB70A1F2A91
:1004100031088038B60203181E2A0130B7020318CB
:100420001E2AB70A31088038B6073208B507031C00
:10043000FC29B60A031DFC29B70AFC297A14B80B5B
:10044000222A2D2A0310B40DB50DB60DB70D0310D9
:10045000FA0DF90DF80DB90DD929391C352A0310FB
:10046000F80CF90CFA0CB90C382AF70303197A2A9C
:10047000B91B612A0310B40DB50DB60DB70D3308C5
:10048000B40203184D2A0130B50203184D2AB602F2
:1004900003184D2AB702031C702A3208B50203184C
:1004A000582A0130B6020318582AB702031C702AD2
:1004B00031088038B6020318612A0130B702031CE4
:1004C000702AFA0A031D702AF90A031D702AF80A15
:1004D000031D702AF70A03197A2AF80CF90CFA0C92
:1004E0002D08B8003108B806B81F782AF8177E2AF8
:1004F000F8137E2AF701F801F901FA01831200349A
:10050000C40A4408143C031D9B2A1F151F19862A80
:1005100083161E088312AA001E08AB002F08B7001E
:100520002E08B6002D08B5002C08B400451C9A2AE8
:1005300045109B2A45144408283C031DB32A1F1567
:100540001F19A02A83161E088312AA001E08AB00DA
:100550002F08BB002E08BA002D08B9002C08B800DF
:100560000130F400592044083C3C031DCB2A1F15E0
:100570001F19B82A83161E088312AA001E08AB0092
:100580002F08BF002E08BE002D08BD002C08BC009F
:100590000130F40059204408503C031D6D2B1F15F9
:1005A0001F19D02A83161E088312AA001E08AB004A
:1005B0002F08C3002E08C2002D08C1002C08C0005F
:1005C0000130F4005920C401831037088316AB00B2
:1005D000831236088316AA00831235088316A900F1
:1005E000831234088316A80083123B088316AF00D9
:1005F00083123A088316AE00831239088316AD00C1
:10060000831238088316AC0083126E207708831695
:10061000A0007808A1007908A2007A08A30083103E
:100620002308AB002208AA002108A9002008A8007E
:1006300083123F088316AF0083123E088316AE0074
:1006400083123D088316AD0083123C088316AC006C
:1006500083126E2077088316A4007808A500790815
:10066000A6007A08A70083102708AB002608AA0076
:100670002508A9002408A800831243088316AF00A8
:10068000831242088316AE00831241088316AD0020
:10069000831240088316AC0083126E2077088316FD
:1006A000A8007808A9007908AA007A08AB00AF0072
:1006B0002A08AE002908AD002808AC00B301B20139
:1006C000B1018130B0008312B4217A08B3007908F7
:1006D000B2007808B1007708B000451C742B83166F
:1006E000051083120514782B83160510831205104C
:1006F0000B118A1120286C187F2B8610802B8614F2
:10070000831686108312EC18872B0612882B061688
:100710008316061283126C198F2B0613902B061763
:10072000831606138312EC19972B8613982B8617C2
:100730008316861300008510831285149F2B831661
:10074000851083128510003483160511831205115C
:100750001330F700F70BAA2BAD2BE9080319B52BC3
:100760008316051183120515B92B83160511831203
:100770000511000083168510831285106A0EEB00A8
:100780000F30EB056B08EC007B236A080F39EB0098
:10079000EC007B23003483160511831205118316A8
:1007A000851083128510A9018B1BA9178B130F309D
:1007B000F4005920A91B8B17D6015608023C031CD4
:1007C000EF2B0330EC007B23A9018B1BA9178B13A4
:1007D0000530F4005920A91B8B17D60ADD2B0230F7
:1007E000EC007B23D6015608033C031C092C560859
:1007F0003520D700E9015708EA00A423A9018B1B83
:10080000A9178B130530F4005920A91B8B17D60AA2
:10081000F32B8A155D28660B0E2C112C4030E70057
:10082000122CE70101306502E70767088038E8000D
:10083000E9016808EA00A423003464080C3A0319AB
:10084000282C063A0319362C023A03193C2C412C69
:10085000E9010130EA00A423A9018B1BA9178B131E
:100860000230F4005920A91B8B17472C0130E500FA
:100870000230E6000B24472CE9011030EA00A423E3
:10088000472C0130E9006408EA00A423472C003417
:100890008E30F7005708F8005608F900FA01F808FA
:1008A000031D5C2C7908F800F9010830F702F808FC
:1008B000031D5C2CF701642C0310F81B632CF90D4D
:1008C000F80DF7035C2CF8138A15782864080319CF
:1008D000D62CEC0068080319D62CEC070318772CEB
:1008E0007F30EC02031CD62C0319D62C7B2C8130D4
:1008F000EC070318D62C6C08F700F801F901FA018F
:100900006508F000F0176608EF006708EE00183081
:10091000EC00ED016E1CA42C6B08FA07031C962C4E
:10092000F90A031D962CF80A0319ED176A08F9074E
:10093000031C9D2CF80A0319ED176908E600E61759
:100940006608F8070318ED17ED0DF80CF90CFA0C12
:10095000F00CEF0CEE0C0310EC0B892C0130F707B8
:100960000318D62CF81BBB2CF00DFA0DF90DF80D61
:10097000F7030319D62CF01FCC2CFA0A031DCC2C3C
:10098000F90A031DCC2CF80A031DCC2CF80CF90C29
:10099000FA0CF70A0319D62C6508ED006908ED0674
:1009A000ED1FD42CF817DA2CF813DA2CF701F80124
:1009B000F901FA0100346508EC006908EC06EC1F47
:1009C000E62C03110310E51B0314192D6508EC0038
:1009D0006808ED006408ED020319F42CEC1F192DD2
:1009E0000308013A8300192D6908ED006508ED023E
:1009F0000319002DEC1F192D0308013A8300192D4E
:100A00006A08ED006608ED0203190C2DEC1F192D84
:100A10000308013A8300192D6B08ED006708ED0209
:100A20000319182DEC1F192D0308013A8300192D05
:100A3000031000345908E7005808E6005708E5009D
:100A40005608E400EB01EA01E901E801DB240318A0
:100A50002B2D031D302DF701F801F901FA01CF2DDF
:100A60005908DD005808DC005708DB005608DA009A
:100A7000E3015A30E200620884008313631883178D
:100A80000008E701E6007F306607E8006708E90034
:100A90000318E90A0310690CFA00680CF900EA006F
:100AA000620884008313631883176A0880005D0856
:100AB000E1005C08E0005B08DF005A08DE00A901E5
:100AC0008B1BA9178B1359088316AF008312580884
:100AD0008316AE00831257088316AD0083125608A2
:100AE0008316AC0083125D088316B30083125C0882
:100AF0008316B20083125B088316B10083125A0872
:100B00008316B0008312B421A91B8B178310A9018F
:100B10008B1BA9178B135D088316AB0083125C082F
:100B20008316AA0083125B088316A90083125A0851
:100B30008316A8007A08AF007908AE007808AD00E7
:100B40007708AC0083126E20A91B8B177A08DD0092
:100B50007908DC007808DB007708DA006208840096
:100B600083136318831780036108E7006008E600B9
:100B70005F08E5005E08E4005D08EB005C08EA0041
:100B80005B08E9005A08E800DB24031D572D5E08C6
:100B9000F7005F08F8006008F9006108FA008A159C
:100BA0008929F701F801F901FA01EC01ED01EE01E3
:100BB000EF016B086A046904680403190F2E2030E2
:100BC000F0000310E40DE50DE60DE70DEC0DED0D65
:100BD000EE0DEF0D6B086F02031DF82D6A086E0213
:100BE000031DF82D69086D02031DF82D68086C02BD
:100BF000031C092E6808EC026908031C690FED024A
:100C00006A08031C6A0FEE026B08031C6B0FEF02ED
:100C10000314F70DF80DF90DFA0DF00BE12D6C3002
:100C20008400831300340408DC005B08DE00031931
:100C3000322E5A08E7005908E6005808E500570820
:100C4000E400EB01EA012030E9008230E80066248C
:100C50007A08DA007908D9007808D8007708D70030
:100C6000DE0B192E5A08E7005908E6005808E5007F
:100C70005708E4006408B63CE400FA016508E8009F
:100C8000E5170310E50CE60CE70CFA0CF90CF80C70
:100C9000F70CE40B412EE81F582EF709F809F90963
:100CA000FA09F70A0319F80A0319F90A0319FA0AE3
:100CB0007A08DA007908D9007808D8007708D700D0
:100CC000DA1F6F2EDC03DC16D709D809D909DA0937
:100CD000D70A0319D80A0319D90A0319DA0A3B30CB
:100CE000E3009A30E200CA30E100E0010A30DE00A1
:100CF0005B080319DC0A5A08E7005908E60058089F
:100D0000E5005708E4006308EB006208EA006108A8
:100D1000E9006008E800D1250008D700840A00082F
:100D2000D800840A0008D900840A0008DA00FD30DF
:100D30008407F708031DAF2E5B0A5E020319AF2E6E
:100D40005C080319B12E0F395E020319A92E03188E
:100D5000E12EDC1BE12E5C1BB12E2030DD2E20307D
:100D6000DC05DC1EBF2EDC125B08031DDC037708EC
:100D7000DC002D30E4001D245C08F700DC015B087A
:100D80005E02031DCD2E7708DC002E30E4001D240A
:100D90005C08F7002030DC0500303030DC1EDD2E32
:100DA000DC125B08031DDC037708DC002D30E40057
:100DB0001D245C08F700DC013030F7077708E400F9
:100DC0001D246308E7006208E6006108E50060088A
:100DD000E400EB01EA01E9010A30E800D1257A08D4
:100DE000E3007908E2007808E1007708E000DE0B14
:040DF0007B2E003422
:10100000840183131F308305623083168F000F081D
:101010001F129F121B0880399B0007309C0083120F
:10102000C4014510073083169C0005088500033075
:10103000F700F70B19281C0883120D1383169D0166
:10104000831203170510831603130108C0390638ED
:101050008100831290018B16C0308B0410308316F0
:101060008500083086001F129F121B088039103837
:101070009B001F1383121F179F1783169F1783123E
:101080001F142030F8001F08C73978049F001F156F
:101090001F19482883161E088312AA001E08AB00D9
:1010A000A9018B1BA9178B131E30F4008A1159203C
:1010B0008A15A91B8B178A11CB2B8A15D6015608C6
:1010C0008A113D208A15003803196C28D60AE400DD
:1010D0008A111D248A155F28D501D4012030D30040
:1010E0007730D2002B08D7002A08D6008A11482C66
:1010F0008A157A08E7007908E6007808E50077089D
:10110000E4005508EB005408EA005308E9005208CF
:10111000E8008A1166248A157708D6007808D70077
:101120007908D8007A08D900A9018B1BA9178B135D
:1011300059088316AF00831258088316AE00831235
:1011400057088316AD00831256088316AC009A30F8
:10115000B3009930B2004130B1008430B0008A1140
:101160008312B4218A15A91B8B177A08CD00790840
:10117000CC007808CB007708CA004D08E7004C087F
:10118000E6004B08E5004A08E400EB014030EA00C5
:101190001C30E9008C30E8008A1166248A15770833
:1011A000D6007808D7007908D8007A08D9008314C7
:1011B000A9018B1BA9178B138316AB01AA01203041
:1011C000A9008130A80083124D088316AF00831256
:1011D0004C088316AE0083124B088316AD008312B1
:1011E0004A088316AC008A1183126E208A15A91B47
:1011F0008B17A9018B1BA9178B1359088316AF00F6
:10120000831258088316AE00831257088316AD0068
:10121000831256088316AC007A08B3007908B2002E
:101220007808B1007708B0008A118312B4218A15BA
:10123000A91B8B177A08D1007908D0007808CF0055
:101240007708CE008314A9018B1BA9178B135108B3
:101250008316AB00831250088316AA0083124F082E
:101260008316A90083124E088316A800AF01AE01B1
:101270004830AD008530AC008A1183126E208A158B
:10128000A91B8B177708D6007808D7007908D800F3
:101290007A08D900E7005808E6005708E500560824
:1012A000E4009730EB003830EA007230E900E800E3
:1012B0008A1166248A158314A9018B1BA9178B1325
:1012C000E0308316AB006730AA001C30A9007C30E8
:1012D000A8007A08AF007908AE007808AD0077085A
:1012E000AC008A1183126E208A15A91B8B177A080D
:1012F000C9007908C8007808C7007708C6004908FF
:10130000D9004808D8004708D7004608D6008A11F7
:101310001A2D8A157A08C9007908C8007808C7000C
:101320007708C6008314A9018B1BA9178B134908E2
:101330008316AB00831248088316AA00831247085D
:101340008316A900831246088316A800DF30AF0079
:101350001A30AE004830AD007D30AC008A118312E7
:101360006E208A15A91B8B177708D6007808D7003E
:101370007908D8007A08D900A9018B1BA9178B130B
:1013800059088316AF00831258088316AE008312E3
:1013900057088316AD00831256088316AC009730A9
:1013A000B3003830B200F230B1007130B0008A11B1
:1013B0008312B4218A15A91B8B177A08AF0079080C
:1013C000AE007808AD007708AC000A30E5000130C7
:1013D000E6008A110B248A15033084002F08DA00F6
:1013E0002E08D9002D08D8002C08D7000230DB00C9
:1013F0008A1113268A150230D600A9018B1BA91762
:101400008B139630F4008A1159208A15A91B8B176B
:10141000D60BFD290230E500E6008A110B248A155F
:10142000D60156088A114A208A15D60AF700E40028
:101430008A111D248A1505305602031D112A033016
:1014400084003308DA003208D9003108D8003008A7
:10145000D7000230DB008A1113268A15A9018B1BE5
:10146000A9178B13C830F4008A1159208A15A91BBB
:061470008B1772286300D7
:04400E00383FFF3FF9
:00000001FF
;PIC16F88
;CRC=5A04  CREATED="17-Nov-16 02:04"
